:020000040800F2
:10000000005000209D270008092300080F23000846
:10001000152300081B23000821230008000000000E
:10002000000000000000000000000000272300087E
:1000300033230008000000003F2300084B23000882
:10004000E5270008E5270008E5270008E527000860
:10005000E5270008E5270008E5270008E527000850
:10006000E5270008E5270008E5270008E527000840
:10007000E5270008E5270008E5270008E527000830
:10008000E5270008E5270008E5270008E527000820
:10009000E5270008E5270008E5270008E527000810
:1000A000E5270008E5270008E5270008E527000800
:1000B000E52700085D23000871230008E5270008F4
:1000C000E5270008E5270008E5270008E5270008E0
:1000D000E527000885230008E5270008E527000834
:1000E000E5270008E5270008E527000800000000D4
:1000F0000000000000000000000000000000000000
:0C01000000000000000000005FF808F1A3
:1001100010B5054C237833B9044B13B10448AFF341
:1001200000800123237010BDD801002000000000D2
:100130005C84000808B5034B1BB103490348AFF3C7
:10014000008008BD00000000DC0100205C84000885
:10015000034613F8012B002AFBD1181A0138704707
:1001600081F0004102E000BF83F0004330B54FEA68
:1001700041044FEA430594EA050F08BF90EA020FD5
:100180001FBF54EA000C55EA020C7FEA645C7FEA68
:10019000655C00F0E2804FEA5454D4EB5555B8BF8B
:1001A0006D420CDD2C4480EA020281EA030382EAFC
:1001B000000083EA010180EA020281EA0303362D8E
:1001C00088BF30BD11F0004F4FEA01314FF4801C61
:1001D0004CEA113102D0404261EB410113F0004F73
:1001E0004FEA03334CEA133302D0524263EB43032A
:1001F00094EA050F00F0A780A4F10104D5F1200EC8
:100200000DDB02FA0EFC22FA05F2801841F1000122
:1002100003FA0EF2801843FA05F359410EE0A5F1F6
:1002200020050EF1200E012A03FA0EFC28BF4CF027
:10023000020C43FA05F3C01851EBE37101F00045DD
:1002400007D54FF0000EDCF1000C7EEB00006EEBEA
:100250000101B1F5801F1BD3B1F5001F0CD3490874
:100260005FEA30004FEA3C0C04F101044FEA4452CB
:1002700012F5800F80F09A80BCF1004F08BF5FEA52
:10028000500C50F1000041EB045141EA050130BD32
:100290005FEA4C0C404141EB0101013C28BFB1F544
:1002A000801FE9D291F0000F04BF01460020B1FA8F
:1002B00081F308BF2033A3F10B03B3F120020CDA62
:1002C0000C3208DD02F1140CC2F10C0201FA0CF040
:1002D00021FA02F10CE002F11402D8BFC2F1200CA5
:1002E00001FA02F120FA0CFCDCBF41EA0C0190405B
:1002F000E41AA2BF01EB0451294330BD6FEA0404A4
:100300001F3C1CDA0C340EDC04F11404C4F120028E
:1003100020FA04F001FA02F340EA030021FA04F3A0
:1003200045EA030130BDC4F10C04C4F1200220FAF7
:1003300002F001FA04F340EA0300294630BD21FA35
:1003400004F0294630BD94F0000F83F4801306BFFB
:1003500081F480110134013D4EE77FEA645C18BFEF
:100360007FEA655C29D094EA050F08BF90EA020F86
:1003700005D054EA000C04BF1946104630BD91EA7E
:10038000030F1EBF0021002030BD5FEA545C05D181
:100390004000494128BF41F0004130BD14F58004C0
:1003A0003CBF01F5801130BD01F0004545F0FE4134
:1003B00041F470014FF0000030BD7FEA645C1ABF69
:1003C000194610467FEA655C1CBF0B46024650EAA0
:1003D000013406BF52EA033591EA030F41F40021CC
:1003E00030BD00BF90F0000F04BF0021704730B552
:1003F0004FF4806404F132044FF000054FF0000127
:1004000050E700BF90F0000F04BF0021704730B5E7
:100410004FF4806404F1320410F0004548BF4042BC
:100420004FF000013EE700BF42004FEAE2014FEA11
:1004300031014FEA02701FBF12F07F4393F07F4FEC
:1004400081F06051704732F07F4208BF704793F0EF
:100450007F4F04BF41F40021704730B54FF4607402
:1004600001F0004521F000411CE700BF50EA010205
:1004700008BF704730B54FF000050AE050EA0102AE
:1004800008BF704730B511F0004502D5404261EB1E
:1004900041014FF4806404F132045FEA915C3FF45F
:1004A000D8AE4FF003025FEADC0C18BF03325FEAFC
:1004B000DC0C18BF033202EBDC02C2F1200300FAAD
:1004C00003FC20FA02F001FA03FE40EA0E0021FAD2
:1004D00002F11444BDE600BF70B54FF0FF0C4CF4C0
:1004E000E06C1CEA11541DBF1CEA135594EA0C0F72
:1004F00095EA0C0F00F0DEF82C4481EA030621EAAD
:100500004C5123EA4C5350EA013518BF52EA0335E7
:1005100041F4801143F4801338D0A0FB02CE4FF099
:100520000005E1FB02E506F00042E0FB03E54FF0C9
:100530000006E1FB03569CF0000F18BF4EF0010EC1
:10054000A4F1FF04B6F5007F64F5407404D25FEABD
:100550004E0E6D4146EB060642EAC62141EA555170
:100560004FEAC52040EA5E504FEACE2EB4F1FD0CB2
:1005700088BFBCF5E06F1ED8BEF1004F08BF5FEA30
:10058000500E50F1000041EB045170BD06F00046E2
:1005900046EA010140EA020081EA0301B4EB5C048F
:1005A000C2BFD4EB0C0541EA045170BD41F4801187
:1005B0004FF0000E013C00F3AB8014F1360FDEBFAC
:1005C000002001F0004170BDC4F10004203C35DA88
:1005D0000C341BDC04F11404C4F1200500FA05F30B
:1005E00020FA04F001FA05F240EA020001F00042AC
:1005F00021F0004110EBD37021FA04F642EB060122
:100600005EEA430E08BF20EAD37070BDC4F10C044B
:10061000C4F1200500FA04F320FA05F001FA04F20F
:1006200040EA020001F0004110EBD37041F10001FB
:100630005EEA430E08BF20EAD37070BDC4F1200506
:1006400000FA05F24EEA020E20FA04F301FA05F26E
:1006500043EA020321FA04F001F0004121FA04F216
:1006600020EA020000EBD3705EEA430E08BF20EAE6
:10067000D37070BD94F0000F0FD101F00046400020
:1006800041EB010111F4801F08BF013CF7D041EAA2
:10069000060195F0000F18BF704703F000465200A6
:1006A00043EB030313F4801F08BF013DF7D043EA77
:1006B0000603704794EA0C0F0CEA135518BF95EA2D
:1006C0000C0F0CD050EA410618BF52EA4306D1D1B4
:1006D00081EA030101F000414FF0000070BD50EAD3
:1006E000410606BF1046194652EA430619D094EA5D
:1006F0000C0F02D150EA013613D195EA0C0F05D147
:1007000052EA03361CBF104619460AD181EA03019A
:1007100001F0004141F0FE4141F470014FF0000052
:1007200070BD41F0FE4141F4780170BD70B54FF0ED
:10073000FF0C4CF4E06C1CEA11541DBF1CEA13556D
:1007400094EA0C0F95EA0C0F00F0A7F8A4EB05044F
:1007500081EA030E52EA03354FEA013100F0888046
:100760004FEA03334FF0805545EA131343EA12630F
:100770004FEA022245EA111545EA10654FEA0026C4
:100780000EF000419D4208BF964244F1FD0404F57D
:10079000407402D25B084FEA3202B61A65EB0305D9
:1007A0005B084FEA32024FF480104FF4002CB6EB96
:1007B000020E75EB030E22BFB61A754640EA0C0016
:1007C0005B084FEA3202B6EB020E75EB030E22BF56
:1007D000B61A754640EA5C005B084FEA3202B6EB97
:1007E000020E75EB030E22BFB61A754640EA9C0056
:1007F0005B084FEA3202B6EB020E75EB030E22BF26
:10080000B61A754640EADC0055EA060E18D04FEAE3
:10081000051545EA16754FEA06164FEAC30343EA83
:1008200052734FEAC2025FEA1C1CC0D111F4801F50
:100830000BD141EA00014FF000004FF0004CB6E749
:1008400011F4801F04BF01430020B4F1FD0C88BFE8
:10085000BCF5E06F3FF6AFAEB5EB030C04BFB6EBF3
:10086000020C5FEA500C50F1000041EB045170BDE6
:100870000EF0004E4EEA113114EB5C04C2BFD4EB13
:100880000C0541EA045170BD41F480114FF0000E97
:10089000013C90E645EA060E8DE60CEA135594EA13
:1008A0000C0F08BF95EA0C0F3FF43BAF94EA0C0F16
:1008B0000AD150EA01347FF434AF95EA0C0F7FF48B
:1008C00025AF104619462CE795EA0C0F06D152EADF
:1008D00003353FF4FDAE1046194622E750EA4106C3
:1008E00018BF52EA43067FF4C5AE50EA41047FF4D4
:1008F0000DAF52EA43057FF4EBAE12E74FF0FF3C39
:1009000006E000BF4FF0010C02E000BF4FF0010C09
:100910004DF804CD4FEA410C7FEA6C5C4FEA430C82
:1009200018BF7FEA6C5C1BD001B050EA410C0CBFD1
:1009300052EA430C91EA030F02BF90EA020F002033
:10094000704710F1000F91EA030F58BF994208BF9A
:1009500090422CBFD8176FEAE37040F00100704757
:100960004FEA410C7FEA6C5C02D150EA013C07D1AE
:100970004FEA430C7FEA6C5CD6D152EA033CD3D0F9
:100980005DF8040B704700BF8446104662468C46F3
:100990001946634600E000BF01B5FFF7B7FF002826
:1009A00048BF10F1000F01BD4DF808EDFFF7F4FF4F
:1009B0000CBF012000205DF808FB00BF4DF808EDDA
:1009C000FFF7EAFF34BF012000205DF808FB00BFFD
:1009D0004DF808EDFFF7E0FF94BF012000205DF81F
:1009E00008FB00BF4DF808EDFFF7CEFF94BF0120D4
:1009F00000205DF808FB00BF4DF808EDFFF7C4FFCD
:100A000034BF012000205DF808FB00BF4FEA410C15
:100A10007FEA6C5C02D150EA013C0AD14FEA430CF8
:100A20007FEA6C5C02D152EA033C02D14FF0000035
:100A300070474FF0010070474FEA410212F5001273
:100A400015D211D56FF47873B3EB625212D94FEA15
:100A5000C12343F0004343EA505311F0004F23FAFF
:100A600002F018BF404270474FF00000704750EA54
:100A7000013005D111F0004008BF6FF00040704711
:100A80004FF00000704700BF4FEA4102B2F1E0436F
:100A900024BFB3F5001CDCF1FE5C0DD901F0004C65
:100AA0004FEAC0024CEA5070B2F1004F40EB8300B5
:100AB00008BF20F00100704711F0804F21D113F1E1
:100AC0003872BCBF01F00040704741F480114FEA1A
:100AD0005252C2F11802C2F1200C10FA0CF320FAA3
:100AE00002F018BF40F001004FEAC1234FEAD323C0
:100AF00003FA0CFC40EA0C0023FA02F34FEA43032A
:100B0000CCE77FEA625307D150EA01331EBF4FF0B2
:100B1000FE4040F44000704701F0004040F0FE40CD
:100B200040F40000704700BF4FF0FF3C06E000BFFC
:100B30004FF0010C02E000BF4FF0010C4DF804CD66
:100B40004FEA40024FEA41037FEA226C18BF7FEA76
:100B5000236C11D001B052EA530C18BF90EA010F78
:100B600058BFB2EB030088BFC81738BF6FEAE17007
:100B700018BF40F0010070477FEA226C02D15FEAA3
:100B8000402C05D17FEA236CE4D15FEA412CE1D00F
:100B90005DF8040B704700BF844608466146FFE7D6
:100BA0000FB5FFF7C9FF002848BF10F1000F0FBDB8
:100BB0004DF808EDFFF7F4FF0CBF012000205DF8B1
:100BC00008FB00BF4DF808EDFFF7EAFF34BF012036
:100BD00000205DF808FB00BF4DF808EDFFF7E0FFCF
:100BE00094BF012000205DF808FB00BF4DF808ED20
:100BF000FFF7D2FF94BF012000205DF808FB00BF83
:100C00004DF808EDFFF7C8FF34BF012000205DF864
:100C100008FB00BF80B500AF00224FF4005102482E
:100C200002F0AAF900BF80BD000C014080B500AF02
:100C300001224FF40051024802F09EF900BF80BD2E
:100C4000000C014080B500AF00224FF40051024873
:100C500002F092F900BF80BD000C014080B5ACB03D
:100C600000AF0346FB7107F1940300221A605A603B
:100C70009A60DA6007F1840300221A605A609A6071
:100C8000DA6007F17C0300221A605A6007F1600302
:100C900000221A605A609A60DA601A615A619A6199
:100CA0000023C7F8A4300023C7F8AC30002387F82E
:100CB000AB30FB79B24A5B0113441B68B14A9342E3
:100CC00008D0FB79AE4A5B01134404331B68AD4A7C
:100CD00093420CD1AC4B9B69AB4A43F00403936144
:100CE000A94B9B6903F004037B617B6958E0FB79A6
:100CF000A34A5B0113441B68A44A934208D0FB79C2
:100D00009F4A5B01134404331B68A04A93420CD1F1
:100D10009D4B9B699C4A43F0080393619A4B9B69E6
:100D200003F008033B613B693AE0FB79944A5B01BD
:100D300013441B68964A934208D0FB79904A5B01A2
:100D4000134404331B68924A93420CD18E4B9B6927
:100D50008D4A43F0100393618B4B9B6903F01003A2
:100D6000FB60FB681CE0FB79854A5B0113441B6850
:100D7000884A934208D0FB79814A5B0113440433CB
:100D80001B68844A93420BD17F4B9B697E4A43F098
:100D9000200393617C4B9B6903F02003BB60BB681D
:100DA000FB79774A5B01134408331B88C7F89430FA
:100DB0000123C7F898300223C7F8A030FB79704AA6
:100DC0005B0113441B6807F194021146184601F0B9
:100DD0004FFFFB796A4A5B0113440A331B88C7F84B
:100DE00094300123C7F898300223C7F8A030FB796C
:100DF000634A5B01134404331B6807F194021146F4
:100E0000184601F035FFFB795D4A5B011344186811
:100E1000FB795B4A5B01134408331B8800221946A7
:100E200002F0AAF8FB79564A5B01134404331868B0
:100E3000FB79534A5B0113440A331B88002219468D
:100E400002F09AF80123C7F8AC30002387F8AB30E2
:100E500009E0D7F8AC305B00C7F8AC3097F8AB309E
:100E6000013387F8AB30FB79454A5B0113441C33EF
:100E70001B7897F8AB209A42EBD3FB79404A5B0191
:100E8000134414331B881A46434B02FB03F31946E1
:100E9000FB793B4A5B01134418331B68D7F8AC203D
:100EA00002FB03F3B1FBF3F3C7F8A430D7F8A43087
:100EB000013BC7F8A430D7F8AC30023BC7F8AC30E0
:100EC000FB792F4A5B0113440C331B68BB61D7F8D5
:100ED000A430FB6100233B62D7F8AC307B62002377
:100EE000BB6280233B6307F11803184602F076FCCF
:100EF0004FF48053C7F8843007F1840207F11803D8
:100F00001146184603F0BEF907F11803184602F01F
:100F100007FD0023FB670023C7F8803007F17C0240
:100F200007F118031146184603F082FE60233B6662
:100F300000237B660023BB6600233B67FB79104AD6
:100F40005B01134410331A6807F1600107F11803BD
:100F5000184603F0D9F807F11803184601F070FBA2
:100F6000FB79074A5B01134410331A6807F1180331
:100F70001146184602F02CFD00BFB037BD4680BDBB
:100F8000248500080008014000100240000C0140C8
:100F9000001001400014014040420F0080B582B0B3
:100FA00000AF0346FB710B46BB711346BB80BB7998
:100FB000002B1FD1FB79404A5B0113441868FB7971
:100FC0003D4A5B01134408331B880122194601F096
:100FD000D3FFFB79384A5B01134404331868FB796B
:100FE000354A5B0113440A331B880022194601F07D
:100FF000C3FF21E0BB79012B1ED1FB792E4A5B0197
:1010000013441868FB792C4A5B01134408331B888E
:101010000022194601F0B0FFFB79274A5B01134417
:1010200004331868FB79244A5B0113440A331B8894
:101030000122194601F0A0FFFB791F4A5B0113440E
:1010400010331B68002B08D1FB791B4A5B0113444A
:101050000C331B68BA885A6329E0FB79164A5B0196
:10106000134410331B68042B08D1FB79124A5B012F
:1010700013440C331B68BA889A6318E0FB790E4A54
:101080005B01134410331B68082B08D1FB790A4A13
:101090005B0113440C331B68BA88DA6307E0FB7901
:1010A000054A5B0113440C331B68BA881A6400BFFD
:1010B0000837BD4680BD00BF2485000880B483B0DA
:1010C00000AF03460A46FB711346BB80FB791F4AFB
:1010D0005B01134410331B68002B08D1FB791B4ABA
:1010E0005B0113440C331B68BA885A6329E0FB790F
:1010F000164A5B01134410331B68042B08D1FB799B
:10110000124A5B0113440C331B68BA889A6318E0D7
:10111000FB790E4A5B01134410331B68082B08D17E
:10112000FB790A4A5B0113440C331B68BA88DA6303
:1011300007E0FB79054A5B0113440C331B68BA884E
:101140001A6400BF0C37BD4680BC70472485000878
:1011500080B582B000AF0346FB71FB792E4A5B017C
:1011600013441868FB792C4A5B01134408331B882D
:101170000022194601F000FFFB79274A5B01134466
:1011800004331868FB79244A5B0113440A331B8833
:101190000022194601F0F0FEFB791F4A5B0113445F
:1011A00010331B68002B08D1FB791B4A5B011344E9
:1011B0000C331B6800225A6329E0FB79164A5B0155
:1011C000134410331B68042B08D1FB79124A5B01CE
:1011D00013440C331B6800229A6318E0FB790E4A13
:1011E0005B01134410331B68082B08D1FB790A4AB2
:1011F0005B0113440C331B680022DA6307E0FB79C0
:10120000054A5B0113440C331B6800221A6400BFBB
:101210000837BD4680BD00BF2485000880B594B066
:1012200000AF03463960FB7107F1400300221A60EA
:101230005A609A60DA6007F1300300221A605A603F
:101240009A60DA6007F1280300221A605A6007F1F9
:10125000180300221A605A609A60DA60FA798749A6
:1012600013469B0013449B000B441B68844A934223
:101270000CD1844B9B69834A43F004039361814BF7
:101280009B6903F004037B617B6946E0FA797B4943
:1012900013469B0013449B000B441B687A4A9342FD
:1012A0000CD1784B9B69774A43F008039361754BE7
:1012B0009B6903F008033B613B692EE0FA796F49B3
:1012C00013469B0013449B000B441B686F4A9342D8
:1012D0000CD16C4B9B696B4A43F010039361694BD3
:1012E0009B6903F01003FB60FB6816E0FA79634921
:1012F00013469B0013449B000B441B68644A9342B3
:101300000BD1604B9B695F4A43F0200393615D4BB7
:101310009B6903F02003BB60BB68FA795749134609
:101320009B0013449B000B4404331B883B64012344
:101330007B640023BB640223FB64FA794F491346A4
:101340009B0013449B000B441B6807F140021146AD
:10135000184601F08DFCFA79484913469B00134466
:101360009B000B4408331B68FA79996A4948134675
:10137000DB0013449B00034404331960FA793F49AE
:1013800013469B0013449B000B4408331B68FA79F7
:10139000D96A40481346DB0013449B0003440833DA
:1013A0001960FA793B491346DB0013449B000B4458
:1013B000023300221A80FA7936491346DB001344BF
:1013C0009B000B441C333A681A60FA793149134682
:1013D000DB0013449B000B4408331B68002B0AD12D
:1013E000FA792C491346DB0013449B000B44083365
:1013F0004FF6FF721A60FA79204913469B00134496
:101400009B000B440C331B68002B0AD1FA7921494D
:101410001346DB0013449B000B44203301221A7057
:101420004FE0FA79154913469B0013449B000B4487
:101430000C331B68042B0AD1FA7916491346DB00DA
:1014400013449B000B44203302221A7039E0FA79CE
:101450000A4913469B0013449B000B440C331B6842
:10146000082B19D1FA790B491346DB0013449B0072
:101470000B44203304221A7023E000BF6485000867
:101480000008014000100240000C01400010014023
:1014900000140140F4010020FA79414913469B00F1
:1014A00013449B000B440C331B680C2B09D1FA79B5
:1014B0003C491346DB0013449B000B4420330822B5
:1014C0001A70FA79364913469B0013449B000B446B
:1014D00008331A683B681A60FA7932491346DB0010
:1014E00013449B000B4404331A683B685A603B6802
:1014F00000229A60FA792B491346DB0013449B00C3
:101500000B4408331A683B68DA603B6800221A61B2
:101510003B6880229A61386802F060F94FF480538A
:101520003B6307F130031946386802F0ABFE3868B8
:1015300002F0F0FA0023BB620023FB6207F12803EC
:101540001946386803F074FB0023BB610123FB617B
:1015500000233B6200237B62FA79114913469B000A
:1015600013449B000B440C331A6807F11803194607
:10157000386802F035FD386802F080F9FA790849D8
:1015800013469B0013449B000B440C331B68194605
:10159000386802F017FB00BF5037BD4680BD00BF62
:1015A00064850008F401002080B485B000AF786045
:1015B0000023FB730023FB7323E07B681968FA7B2D
:1015C000144813469B0013449B00034408331B68D4
:1015D000994213D1FA7B10491346DB0013449B0058
:1015E0000B4402331B88013398B20B491346DB00CE
:1015F00013449B000B44023302461A80FB7B0133E9
:10160000FB73FB7B032BD8D900BF00BF1437BD464B
:1016100080BC704764850008F401002000000000D1
:10162000B0B584B000AF78600023FB730023BB60CB
:101630000023FB732AE27B681968FA7B6B48134628
:101640009B0013449B00034408331B68994240F0FD
:101650001A827B68197FFA7B65481346DB001344C6
:101660009B00034420331B78994240F00C82FA7BA4
:101670005F491346DB0013449B000B441B78002B8F
:1016800040F0B880FA7B594913469B0013449B00F5
:101690000B440C331B68FC7B1946786802F0B6FEDD
:1016A000024653492346DB0023449B000B440C3382
:1016B0001A60FA7B4E491346DB0013449B000B442F
:1016C00001221A70FA7B494913469B0013449B0080
:1016D0000B440C331B68002B08D17B681B681A6A0B
:1016E0007B681B6822F00A021A622FE0FA7B3F49EE
:1016F00013469B0013449B000B440C331B68042BC4
:1017000008D17B681B681B6A7A68126823F0A00303
:1017100013621BE0FA7B354913469B0013449B0080
:101720000B440C331B68082B08D17B681B681B6AB1
:101730007A68126823F40073136207E07B681B6801
:101740001B6A7A68126823F400531362FA7B2749F4
:1017500013469B0013449B000B440C331B68002B67
:1017600008D17B681B681A6A7B681B6842F002021A
:101770001A622FE0FA7B1D4913469B0013449B001D
:101780000B440C331B68042B08D17B681B681B6A55
:101790007A68126843F0200313621BE0FA7B134956
:1017A00013469B0013449B000B440C331B68082B0F
:1017B00008D17B681B681B6A7A68126843F400735F
:1017C000136207E07B681B681B6A7A68126843F43F
:1017D00000531362FA7B06491346DB0013449B0057
:1017E0000B44023300221A804DE100BF64850008DB
:1017F000F4010020FA7BAC491346DB0013449B0044
:101800000B441B78012B40F03E81FA7BA74913461D
:101810009B0013449B000B4408331B689B6ABB600E
:10182000FA7BA24913469B0013449B000B440833E8
:101830001B68FA7BD96A9C481346DB0013449B0063
:10184000034408331960FA7B984913469B001344FC
:101850009B000B440C331B68FC7B1946786802F034
:10186000D5FD024690492346DB0023449B000B44F0
:1018700010331A60FA7B8C491346DB0013449B003B
:101880000B4410331968FA7B87481346DB00134476
:101890009B00034402331B881C46FA7B8248134694
:1018A000DB0013449B00034408331B68013304FB33
:1018B00003F3FA7B19447C481346DB0013449B0076
:1018C000034410331960FA7B77491346DB00134455
:1018D0009B000B4410331968FA7B73481346DB00F6
:1018E00013449B0003440C331B68FA7BC91A6E48EF
:1018F0001346DB0013449B00034414331960FA7B46
:1019000069491346DB0013449B000B4414331B68E6
:101910001846FEF767FD62A3D3E90023FEF7DCFD5E
:1019200002460B4614461D46FA7B604913469B004F
:1019300013449B000B4410331A68BB680133B2FB9D
:10194000F3F31846FEF74EFD02460B4620462946A5
:10195000FEF7ECFE02460B46FC7B10461946FFF7ED
:1019600093F8024650492346DB0023449B000B4476
:1019700018331A60FA7B4C491346DB0013449B0072
:101980000B4400221A70FA7B484913469B0013440B
:101990009B000B440C331B68002B08D17B681B6831
:1019A0001A6A7B681B6822F00A021A622FE0FA7B2F
:1019B0003E4913469B0013449B000B440C331B68A9
:1019C000042B08D17B681B681B6A7A68126823F0B5
:1019D000A00313621BE0FA7B344913469B001344B7
:1019E0009B000B440C331B68082B08D17B681B68D9
:1019F0001B6A7A68126823F40073136207E07B683D
:101A00001B681B6A7A68126823F400531362FA7B1E
:101A1000264913469B0013449B000B440C331B6860
:101A2000002B06D17B681A687B681B68126A1A62F1
:101A300029E0FA7B1D4913469B0013449B000B448D
:101A40000C331B68042B06D17B681B687A6812680C
:101A50001B6A136217E0FA7B144913469B00134478
:101A60009B000B440C331B68082B06D17B681B685A
:101A70007A6812681B6A136205E07B681B687A68E3
:101A800012681B6A1362FB7B0133FB73FB7B032B26
:101A90007FF6D1AD00BF00BF1037BD46B0BD00BF5F
:101AA0009CC420B07268913FF40100206485000856
:101AB00080B483B000AF0346FB71FA790649134640
:101AC000DB0013449B000B4418331B6818460C378B
:101AD000BD4680BC704700BFF401002080B584B0D3
:101AE00000AF0346FB71FA79234913469B00134468
:101AF0009B000B441868FA791F4913469B00134456
:101B00009B000B4404331B880122194601F034FA70
:101B10001A4B9B68FB601A4B1B681A4AA2FB0323F3
:101B20009B0C5A00164B1B681649A1FB03139B0C18
:101B30005B08D31ABB60114B9B68FA68D31ABA686A
:101B40009A42F8D8FA790C4913469B0013449B003B
:101B50000B441868FA79084913469B0013449B000C
:101B60000B4404331B880022194601F005FA00BF1C
:101B70001037BD4680BD00BF6485000810E000E05E
:101B80000400002083DE1B4380B588B000AF07F15E
:101B9000100300221A605A609A60DA60284B9B6931
:101BA000274A43F020039361254B9B6903F02003F0
:101BB000FB60FB68224B9B69214A43F0040393615D
:101BC0001F4B9B6903F00403BB60BB681C4B9B6904
:101BD0001B4A43F008039361194B9B6903F0080308
:101BE0007B607B68002243F23341164801F0C4F960
:101BF00000224FF4C051144801F0BEF943F23343C0
:101C00003B6101237B610023BB610123FB6107F181
:101C1000100319460B4801F02BF84FF4C0533B61F9
:101C200001237B610023BB610123FB6107F11003EA
:101C30001946054801F01CF800BF2037BD4680BD9D
:101C400000100240000C01400008014080B584B043
:101C500000AF00F0C9FD00F0C1F800F005F9FFF792
:101C600093FF00F01DFD00F0BDF94FF00003FB6095
:101C70004FF00003BB604FF000037B604FF00003A8
:101C80003B604D4800F06CFA642000F00FFE4B4BB7
:101C90001B78062B00F28D8001A252F823F000BFC2
:101CA000BD1C0008D71C0008F11C00080B1D000813
:101CB000251D0008311D00086D1D0008404800F07A
:101CC0004FFA00F031F94FF4FA7000F0EFFD3B4BA2
:101CD00004221A706EE03B4800F042FA00F034F93A
:101CE0004FF4FA7000F0E2FD344B04221A7061E008
:101CF000354800F035FA00F037F94FF4FA7000F08B
:101D0000D5FD2E4B04221A7054E0304800F028FA1A
:101D100000F03AF94FF4FA7000F0C8FD274B0422A6
:101D20001A7047E000F040F9294800F019FA41E044
:101D30000020FFF7BDFEB8600120FFF7B9FEF86094
:101D4000244800F00DFAF86800F028FA224800F064
:101D500007FA0220FFF7ACFE78607A68B968F86885
:101D600000F052F90A2000F0A1FD23E00020FFF767
:101D70009FFEB8600220FFF79BFE78600320FFF70C
:101D800097FE3860134800F0EBF9386800F006FA67
:101D9000114800F0E5F9386800F09EF9322000F0B3
:101DA00085FD7968B86800F0BBF9322000F07EFD4F
:101DB00000E000BF6BE700BF78840008000000204F
:101DC000A4840008B4840008C8840008D8840008EB
:101DD000E8840008F48400080885000880B590B005
:101DE00000AF07F1180328220021184604F04BFA2F
:101DF0003B1D00221A605A609A60DA601A61012362
:101E0000BB614FF48033FB6100233B620123BB6263
:101E100002237B634FF48033BB634FF4E013FB6317
:101E200007F11803184601F0BFF80346002B01D054
:101E300000F032FA0F237B600223BB600023FB60BB
:101E40004FF480633B6100237B613B1D02211846F8
:101E500001F02CFB0346002B01D000F01DFA00BF5F
:101E60004037BD4680BD000080B500AF114900205D
:101E7000FFF7D4F90F490120FFF7D0F90E490220EE
:101E8000FFF7CCF90C490320FFF7C8F90020FEF753
:101E9000E5FE0120FEF7E2FE002201210020FFF70F
:101EA0007DF8002200210120FFF778F8FEF7B2FE4E
:101EB00000BF80BDCC0200208402002080B582B02B
:101EC00000AF78607868FFF7ABFB00BF0837BD460E
:101ED00080BD80B582B000AF78607868FFF764FBA2
:101EE00000BF0837BD4680BD80B500AF0D4B1B88D5
:101EF00001339AB20B4B1A800A4B1B88092B0ED95F
:101F00000020FFF7EBFD0120FFF7E8FD0220FFF7BF
:101F1000E5FD0320FFF7E2FD024B00221A8000BF1F
:101F200080BD00BF1403002080B500AF4FF6FF72E4
:101F300001210020FFF732F84FF6FF720021012047
:101F4000FFF72CF800BF80BD80B500AF4FF6FF72E1
:101F500000210020FFF722F84FF6FF720121012037
:101F6000FFF71CF800BF80BD80B500AF4FF6FF72D1
:101F700001210020FFF712F84FF6FF720121012026
:101F8000FFF70CF800BF80BD80B500AF4FF6FF72C1
:101F900000210020FFF702F84FF6FF720021012018
:101FA000FEF7FCFF00BF80BD80B500AF0020FFF74B
:101FB000CFF80120FFF7CCF800BF80BD80B582B01C
:101FC00000AF0346FB80FB8819460020FFF776F838
:101FD000FB8819460120FFF771F800BF0837BD469E
:101FE00080BD000080B500AF01220549054802F020
:101FF0006EFF0346002B01D000F04EF900BF80BDFC
:10200000160300201C03002080B584B000AFF860E8
:10201000B9607A602F49B868FEF7D4FD0346002BFB
:102020000DD12C49F868FEF7CDFD0346002B06D1F3
:1020300028497868FEF7C6FD0346002B42D0F968B0
:10204000B868FEF7BFFD0346002B09D07968B86871
:10205000FEF7B8FD0346002B02D0FFF795FF30E0F6
:10206000B968F868FEF7AEFD0346002B26D0796804
:10207000F868FEF7A7FD0346002B1FD0FFF794FF7B
:10208000FFF762FF322000F011FC7968B868FEF7B4
:1020900099FD0346002B08D0FFF776FF4FF4FA7046
:1020A00000F004FCFFF740FF0BE0FFF75DFF4FF48B
:1020B000FA7000F0FBFBFFF737FF02E0FFF754FF79
:1020C00003E002E0FFF730FF00BF00BF1037BD465E
:1020D00080BD00BF0000704180B582B000AF786065
:1020E0000D497868FEF76EFD0346002B04D040F6DC
:1020F000FF70FFF763FF0BE008497868FEF762FDA9
:102100000346002B02D0FFF74FFF01E0FFF71CFF53
:1021100000BF0837BD4680BD0000A04100007041EF
:1021200080B582B000AF786039600C497868FEF7FE
:1021300049FD0346002B06D108493868FEF742FDE9
:102140000346002B02D0FEF771FD02E0FEF77AFD98
:1021500000BF00BF0837BD4680BD00BF0000C841BA
:1021600080B584B000AF78600023FB8102E0FB897A
:102170000133FB81FB897A6813441B78002BF6D16D
:10218000FA894FF0FF337968034802F00EFE00BF72
:102190001037BD4680BD00BF1C03002080B588B04D
:1021A00000AF78607868FEF73FF902460B4607F10A
:1021B0000C00064904F004F807F10C031846FFF779
:1021C000CFFF00BF2037BD4680BD00BF0C85000893
:1021D00080B582B000AF78607B681B682A4A934262
:1021E0004DD1012229492A4802F071FE274B1B7864
:1021F000423B112B42D801A252F823F04D22000895
:102200007D220008752200087D2200084522000872
:102210007D2200087D2200087D2200087D22000822
:102220007D2200085D2200087D2200087D22000832
:102230006D2200087D2200087D220008552200083A
:1022400065220008134B00221A7018E0114B01227E
:102250001A7014E00F4B02221A7010E00D4B03228B
:102260001A700CE00B4B04221A7008E0094B05228F
:102270001A7004E0074B06221A7000E000BF00BF8E
:102280000837BD4680BD00BF00380140160300205E
:102290001C0300200000002080B400AF72B600BF15
:1022A000FEE7000080B485B000AF154B9B69144A6F
:1022B00043F001039361124B9B6903F00103BB6080
:1022C000BB680F4BDB690E4A43F08053D3610C4B64
:1022D000DB6903F080537B607B680A4B5B68FB60C3
:1022E000FB6823F0E063FB60FB6843F00073FB6076
:1022F000044AFB68536000BF1437BD4680BC70477A
:10230000001002400000014080B400AFFEE780B43E
:1023100000AFFEE780B400AFFEE780B400AFFEE799
:1023200080B400AFFEE780B400AF00BFBD4680BC04
:10233000704780B400AF00BFBD4680BC704780B41A
:1023400000AF00BFBD4680BC704780B500AF00F055
:1023500091FAFFF7C9FD00BF80BD000080B500AF56
:10236000024801F035FD00BF80BD00BF840200209F
:1023700080B500AF024801F02BFD00BF80BD00BF5B
:10238000CC02002080B500AF024802F0D1FD00BFB2
:1023900080BD00BF1C03002080B400AF012318469D
:1023A000BD4680BC704780B582B000AF78603960B0
:1023B00003F0BCFF034616221A604FF0FF331846A5
:1023C0000837BD4680BD80B582B000AF78604FF061
:1023D000FF317868FFF7E7FFFEE780B586B000AF12
:1023E000F860B9607A6000237B610AE0AFF3008097
:1023F0000146BB685A1CBA60CAB21A707B690133C5
:102400007B617A697B689A42F0DB7B6818461837F3
:10241000BD4680BD80B586B000AFF860B9607A6017
:1024200000237B6109E0BB685A1CBA601B78184620
:10243000AFF300807B6901337B617A697B689A42E4
:10244000F1DB7B6818461837BD4680BD80B483B089
:1024500000AF78604FF0FF3318460C37BD4680BCA4
:10246000704780B483B000AF786039603B684FF448
:1024700000525A60002318460C37BD4680BC704796
:1024800080B483B000AF7860012318460C37BD4696
:1024900080BC704780B485B000AFF860B9607A60E6
:1024A000002318461437BD4680BC704780B586B0FF
:1024B00000AF7860144A154BD31A7B617B693B618E
:1024C000134B1B68002B02D1114B124A1A60104BA0
:1024D0001A687B6813443A699A4207D203F026FFD0
:1024E00003460C221A604FF0FF3309E0084B1B68CB
:1024F000FB60074B1A687B681344054A1360FB684E
:1025000018461837BD4680BD00500020000400006A
:1025100018030020B004002080B400AF00BFBD4607
:1025200080BC704780B58CB000AF786007F12003A5
:1025300000221A605A609A60DA607B681B68B3F107
:10254000804F0CD1394BDB69384A43F00103D3612A
:10255000364BDB6903F00103FB61FB6962E07B68DA
:102560001B68334A93422CD1304BDB692F4A43F02E
:102570000203D3612D4BDB6903F00203BB61BB692E
:102580002A4B9B69294A43F004039361274B9B69BB
:1025900003F004037B617B69C0233B6200237B6201
:1025A0000023BB6207F120031946224800F060FBBC
:1025B000002200211D2000F074FA1D2000F08DFA89
:1025C00030E07B681B681C4A93422BD1174BDB69B8
:1025D000164A43F00403D361144BDB6903F0040390
:1025E0003B613B69114B9B69104A43F008039361BF
:1025F0000E4B9B6903F00803FB60FB68C0233B6242
:1026000000237B620023BB6207F1200319460B48BD
:1026100000F02EFB002200211E2000F042FA1E20B6
:1026200000F05BFA00BF3037BD4680BD00100240AD
:10263000000400400008014000080040000C014078
:1026400080B588B000AF786007F1100300221A60EF
:102650005A609A60DA607B681B68B3F1804F17D1CB
:102660000D4B9B690C4A43F0040393610A4B9B6931
:1026700003F00403FB60FB6806233B6102237B61DC
:102680000223FB6107F110031946044800F0F0FA39
:1026900000BF2037BD4680BD001002400008014049
:1026A00080B500AF114B124A1A60104B4FF416520E
:1026B0005A600E4B00229A600C4B0022DA600B4BE2
:1026C00000221A61094B0C225A61084B00229A61C0
:1026D000064B0022DA61054802F01AFB0346002B84
:1026E00001D0FFF7D9FD00BF80BD00BF1C03002053
:1026F0000038014080B588B000AF786007F1100362
:1027000000221A605A609A60DA607B681B68204A6F
:10271000934239D11F4B9B691E4A43F48043936116
:102720001C4B9B6903F48043FB60FB68194B9B695E
:10273000184A43F004039361164B9B6903F00403AA
:10274000BB60BB684FF400733B6102237B610323D2
:10275000FB6107F1100319460F4800F089FA4FF4A6
:1027600080633B6100237B610023BB6107F11003A1
:102770001946094800F07CFA00220021252000F0CB
:1027800090F9252000F0A9F900BF2037BD4680BD93
:102790000038014000100240000801400C480D497B
:1027A0000D4A002302E0D458C4500433C4188C42AC
:1027B000F9D30A4A0A4C002301E013600432A24212
:1027C000FBD3FFF7A9FE03F0B7FDFFF73FFA704711
:1027D00000000020D801002044890008D801002012
:1027E000B0040020FEE7000080B500AF084B1B6876
:1027F000074A43F010031360032000F047F90F204D
:1028000000F008F8FFF74EFD0023184680BD00BF1A
:102810000020024080B582B000AF7860124B1A6889
:10282000124B1B7819464FF47A73B3FBF1F3B2FBEA
:10283000F3F3184600F05FF90346002B01D00123A3
:102840000EE07B680F2B0AD8002279684FF0FF302A
:1028500000F027F9064A7B681360002300E001239B
:1028600018460837BD4680BD040000200C0000203B
:102870000800002080B400AF054B1B781A46054BBA
:102880001B681344034A136000BFBD4680BC7047F9
:102890000C0000206003002080B400AF024B1B68D6
:1028A0001846BD4680BC70476003002080B584B0E8
:1028B00000AF7860FFF7F0FFB8607B68FB60FB68F3
:1028C000B3F1FF3F05D00A4B1B781A46FB6813444F
:1028D000FB6000BFFFF7E0FF0246BB68D31AFA684F
:1028E0009A42F7D800BF00BF1037BD4680BD00BF79
:1028F0000C00002080B485B000AF78607B6803F0E6
:102900000703FB600C4BDB68BB60BA684FF6FF0344
:102910001340BB60FB681A02BB68134343F0BF63FC
:1029200043F40033BB60044ABB68D36000BF143774
:10293000BD4680BC704700BF00ED00E080B400AF32
:10294000044BDB681B0A03F007031846BD4680BC36
:10295000704700BF00ED00E080B483B000AF0346D5
:10296000FB7197F90730002B0BDBFB7903F01F029B
:10297000064997F907305B09012000FA02F241F895
:10298000232000BF0C37BD4680BC704700E100E04B
:1029900080B483B000AF03463960FB7197F907300C
:1029A000002B0ADB3B68DAB20C4997F907301201B9
:1029B000D2B20B4483F800230AE03B68DAB208493C
:1029C000FB7903F00F03043B1201D2B20B441A76D9
:1029D00000BF0C37BD4680BC704700BF00E100E07F
:1029E00000ED00E080B489B000AFF860B9607A60B3
:1029F000FB6803F00703FB61FB69C3F10703042BCA
:102A000028BF0423BB61FB690433062B02D9FB6991
:102A1000033B00E000237B614FF0FF32BB6902FA09
:102A200003F3DA43BB681A407B699A404FF0FF31E9
:102A30007B6901FA03F3D9437B680B4013431846C3
:102A40002437BD4680BC704780B582B000AF786047
:102A50007B68013BB3F1807F01D301230FE00A4A79
:102A60007B68013B53600F214FF0FF30FFF790FF71
:102A7000054B00229A60044B07221A600023184677
:102A80000837BD4680BD00BF10E000E080B582B0D1
:102A900000AF78607868FFF72DFF00BF0837BD46AC
:102AA00080BD80B586B000AF0346B9607A60FB7325
:102AB00000237B61FFF742FF78617A68B968786923
:102AC000FFF790FF024697F90F3011461846FFF7BF
:102AD0005FFF00BF1837BD4680BD80B582B000AF34
:102AE0000346FB7197F907301846FFF735FF00BF23
:102AF0000837BD4680BD80B582B000AF7860786889
:102B0000FFF7A2FF034618460837BD4680BD80B4D4
:102B100085B000AF78600023FB737B6893F82130A9
:102B2000022B08D07B6804229A637B68002283F81A
:102B30002020012320E07B681B681A687B681B68E3
:102B400022F00E021A607B681B681A687B681B689B
:102B500022F001021A607B681A6C7B68DB6B012132
:102B600001FA02F25A607B68012283F821207B6817
:102B7000002283F82020FB7B18461437BD4680BC1A
:102B80007047000080B584B000AF78600023FB730D
:102B90007B6893F82130022B05D07B6804229A636E
:102BA0000123FB7351E07B681B681A687B681B6814
:102BB00022F00E021A607B681B681A687B681B682B
:102BC00022F001021A607B681B68224A934229D0D6
:102BD0007B681B68204A934222D07B681B681F4A8F
:102BE00093421AD07B681B681D4A934212D07B68BF
:102BF0001B681C4A93420AD07B681B681A4A93429E
:102C000002D14FF480130EE04FF080730BE04FF4CD
:102C1000803308E04FF4805305E04FF4807302E006
:102C2000102300E00123114A53607B68012283F8DE
:102C300021207B68002283F820207B685B6B002BBF
:102C400003D07B685B6B78689847FB7B184610372E
:102C5000BD4680BD080002401C000240300002401A
:102C600044000240580002406C0002400000024054
:102C700080B48BB000AF7860396000237B620023A2
:102C80003B6269E101227B6A02FA03F3FB613B6864
:102C90001B68FA691340BB61BA69FB699A4240F04C
:102CA00058813B685B689A4A93425ED0984A934247
:102CB00075D8984A934258D0964A93426FD8964A0C
:102CC000934252D0944A934269D8944A93424CD04A
:102CD000924A934263D8924A934246D0904A934292
:102CE0005DD8122B2AD8122B59D801A252F823F002
:102CF0006B2D0008452D0008572D0008992D000860
:102D00009F2D00089F2D00089F2D00089F2D000873
:102D10009F2D00089F2D00089F2D00089F2D000863
:102D20009F2D00089F2D00089F2D00089F2D000853
:102D30009F2D00084D2D0008612D0008794A93420F
:102D400013D02CE03B68DB683B6229E03B68DB6822
:102D500004333B6224E03B68DB6808333B621FE0DE
:102D60003B68DB680C333B621AE03B689B68002BD6
:102D700002D104233B6213E03B689B68012B05D121
:102D800008233B627B68FA691A6109E008233B6209
:102D90007B68FA695A6103E000233B6200E000BFF0
:102DA000BB69FF2B01D87B6801E07B6804337B6142
:102DB000BB69FF2B02D87B6A9B0002E07B6A083B61
:102DC0009B003B617B691A680F213B6901FA03F3A1
:102DD000DB431A40396A3B6901FA03F31A437B6902
:102DE0001A603B685B6803F08053002B00F0B180F1
:102DF0004D4B9B694C4A43F0010393614A4B9B69DD
:102E000003F00103BB60BB68484A7B6A9B0802333E
:102E100052F82330FB607B6A03F003039B000F2210
:102E200002FA03F3DB43FA681340FB607B68404A15
:102E3000934213D07B683F4A93420DD07B683E4A51
:102E4000934207D07B683D4A934201D1032306E0B9
:102E5000042304E0022302E0012300E000237A6A55
:102E600002F0030292009340FA681343FB602F497B
:102E70007B6A9B080233FA6841F823203B685B6851
:102E800003F48033002B06D02D4B1A682C49BB6904
:102E900013430B6006E02A4B1A68BB69DB432849E1
:102EA00013400B603B685B6803F40033002B06D0D3
:102EB000234B5A682249BB6913434B6006E0204B01
:102EC0005A68BB69DB431E4913404B603B685B6833
:102ED00003F48013002B06D0194B9A681849BB697C
:102EE00013438B6006E0164B9A68BB69DB431449B9
:102EF00013408B603B685B6803F40013002B21D008
:102F00000F4BDA680E49BB691343CB6021E000BF69
:102F100000003210000031100000221000002110CB
:102F200000001210000011100010024000000140CB
:102F300000080140000C0140001001400014014055
:102F4000000401400B4BDA68BB69DB4309491340BD
:102F5000CB607B6A01337B623B681A687B6A22FA2A
:102F600003F3002B7FF48EAE00BF00BF2C37BD46AD
:102F700080BC70470004014080B483B000AF78602B
:102F80000B467B8013467B707B78002B03D07A88BE
:102F90007B681A6103E07B881A047B681A6100BFB2
:102FA0000C37BD4680BC704780B586B000AF7860F6
:102FB0007B68002B01D1012372E27B681B6803F060
:102FC0000103002B00F08780924B5B6803F00C0339
:102FD000042B0CD08F4B5B6803F00C03082B12D131
:102FE0008C4B5B6803F48033B3F5803F0BD1894B86
:102FF0001B6803F40033002B6CD07B685B68002BEC
:1030000068D101234CE27B685B68B3F5803F06D151
:10301000804B1B687F4A43F4803313602EE07B684B
:103020005B68002B0CD17B4B1B687A4A23F48033FE
:103030001360784B1B68774A23F4802313601DE0EC
:103040007B685B68B3F5A02F0CD1724B1B68714A8B
:1030500043F4802313606F4B1B686E4A43F4803344
:1030600013600BE06B4B1B686A4A23F480331360D8
:10307000684B1B68674A23F4802313607B685B6896
:10308000002B13D0FFF708FC386108E0FFF704FCC1
:1030900002463B69D31A642B01D9032300E25D4B3E
:1030A0001B6803F40033002BF0D014E0FFF7F4FBAF
:1030B000386108E0FFF7F0FB02463B69D31A642B46
:1030C00001D90323ECE1534B1B6803F40033002BBD
:1030D000F0D100E000BF7B681B6803F00203002B07
:1030E00063D04C4B5B6803F00C03002B0BD0494BB7
:1030F0005B6803F00C03082B1CD1464B5B6803F4A0
:103100008033002B16D1434B1B6803F00203002BC6
:1031100005D07B681B69012B01D00123C0E13D4B29
:103120001B6823F0F8027B685B69DB0039491343B5
:103130000B603AE07B681B69002B20D0364B0122E4
:103140001A60FFF7A9FB386108E0FFF7A5FB02460C
:103150003B69D31A022B01D90323A1E12D4B1B6834
:1031600003F00203002BF0D02A4B1B6823F0F80277
:103170007B685B69DB00274913430B6015E0264B36
:1031800000221A60FFF788FB386108E0FFF784FB34
:1031900002463B69D31A022B01D9032380E11D4B60
:1031A0001B6803F00203002BF0D17B681B6803F05F
:1031B0000803002B3AD07B689B69002B19D0174B72
:1031C00001221A60FFF768FB386108E0FFF764FB33
:1031D00002463B69D31A022B01D9032360E10D4B50
:1031E0005B6A03F00203002BF0D0012000F0D8FA54
:1031F0001CE00A4B00221A60FFF74EFB38610FE01B
:10320000FFF74AFB02463B69D31A022B08D9032376
:1032100046E100BF001002400000424280044242EA
:10322000924B5B6A03F00203002BE9D17B681B68B9
:1032300003F00403002B00F0A6800023FB758B4BEA
:10324000DB6903F08053002B0DD1884BDB69874A83
:1032500043F08053D361854BDB6903F08053BB603F
:10326000BB680123FB75824B1B6803F48073002B42
:1032700018D17F4B1B687E4A43F480731360FFF7BD
:103280000BFB386108E0FFF707FB02463B69D31AE6
:10329000642B01D9032303E1754B1B6803F480738E
:1032A000002BF0D07B68DB68012B06D16F4B1B6ACB
:1032B0006E4A43F0010313622DE07B68DB68002B4C
:1032C0000CD16A4B1B6A694A23F001031362674BF6
:1032D0001B6A664A23F0040313621CE07B68DB6808
:1032E000052B0CD1614B1B6A604A43F00403136247
:1032F0005E4B1B6A5D4A43F0010313620BE05B4BBC
:103300001B6A5A4A23F001031362584B1B6A574A3F
:1033100023F0040313627B68DB68002B15D0FFF7F2
:10332000BBFA38610AE0FFF7B7FA02463B69D31AE5
:1033300041F28832934201D90323B1E04B4B1B6A1F
:1033400003F00203002BEED014E0FFF7A5FA38617A
:103350000AE0FFF7A1FA02463B69D31A41F288322C
:10336000934201D903239BE0404B1B6A03F0020305
:10337000002BEED1FB7D012B05D13C4BDB693B4A99
:1033800023F08053D3617B68DB69002B00F08780DA
:10339000364B5B6803F00C03082B61D07B68DB695C
:1033A000022B46D1334B00221A60FFF775FA3861C1
:1033B00008E0FFF771FA02463B69D31A022B01D9E4
:1033C00003236DE0294B1B6803F00073002BF0D141
:1033D0007B681B6AB3F5803F08D1244B5B6823F4FC
:1033E00000327B689B68214913434B601F4B5B682D
:1033F00023F474127B68196A7B685B6A0B431B4970
:1034000013434B601B4B01221A60FFF745FA3861EA
:1034100008E0FFF741FA02463B69D31A022B01D9B3
:1034200003233DE0114B1B6803F00073002BF0D029
:1034300035E0104B00221A60FFF72EFA386108E0E1
:10344000FFF72AFA02463B69D31A022B01D903235C
:1034500026E0064B1B6803F00073002BF0D11EE042
:103460007B68DB69012B07D1012319E000100240C2
:1034700000700040600042420B4B5B68FB60FB68E1
:1034800003F480327B681B6A9A4206D1FB6803F41E
:1034900070127B685B6A9A4201D0012300E000232E
:1034A00018461837BD4680BD0010024080B584B074
:1034B00000AF786039607B68002B01D10123D0E038
:1034C0006A4B1B6803F007033A689A4210D9674BAE
:1034D0001B6823F0070265493B6813430B60634B8D
:1034E0001B6803F007033A689A4201D00123B8E051
:1034F0007B681B6803F00203002B20D07B681B68ED
:1035000003F00403002B05D0594B5B68584A43F481
:10351000E06353607B681B6803F00803002B05D051
:10352000534B5B68524A43F460535360504B5B68A3
:1035300023F0F0027B689B684D4913434B607B6826
:103540001B6803F00103002B40D07B685B68012BF4
:1035500007D1474B1B6803F40033002B15D101231F
:103560007FE07B685B68022B07D1414B1B6803F04F
:103570000073002B09D1012373E03D4B1B6803F05E
:103580000203002B01D101236BE0394B5B6823F070
:1035900003027B685B68364913434B60FFF77CF995
:1035A000F8600AE0FFF778F90246FB68D31A41F2A7
:1035B0008832934201D9032353E02D4B5B6803F01B
:1035C0000C027B685B689B009A42EBD1274B1B681F
:1035D00003F007033A689A4210D2244B1B6823F089
:1035E000070222493B6813430B60204B1B6803F022
:1035F00007033A689A4201D0012332E07B681B68D6
:1036000003F00403002B08D0194B5B6823F4E0623D
:103610007B68DB68164913434B607B681B6803F0CB
:103620000803002B09D0124B5B6823F460527B68BF
:103630001B69DB000E4913434B6000F021F8024682
:103640000B4B5B681B0903F00F030A49CB5C22FAA2
:1036500003F3094A1360094B1B681846FFF7DAF8B1
:10366000002318461037BD4680BD00BF0020024031
:1036700000100240B485000804000020080000206B
:1036800090B48AB000AF294B3C1D0FCB84E80F00EB
:1036900040F201233B800023FB610023BB61002338
:1036A0007B6200237B6100233B62214B5B68FB61F3
:1036B000FB6903F00C03042B02D0082B03D02BE092
:1036C0001C4B3B622BE0FB699B0C03F00F03283380
:1036D0003B4413F8243C7B61FB6903F48033002BEB
:1036E00012D0134B5B685B0C03F0010328333B449F
:1036F00013F8283CBB617B690E4A03FB02F2BB69ED
:10370000B2FBF3F37B6204E07B690B4A02FB03F339
:103710007B627B6A3B6202E0064B3B6200BF3B6A16
:1037200018462837BD4690BC704700BF1485000876
:103730000010024000127A0000093D0080B400AF82
:10374000024B1B681846BD4680BC70470400002031
:1037500080B500AFFFF7F2FF0246054B5B681B0A1E
:1037600003F007030349CB5C22FA03F3184680BD3C
:1037700000100240C485000880B500AFFFF7DEFFEF
:103780000246054B5B68DB0A03F007030349CB5C89
:1037900022FA03F3184680BD00100240C4850008D9
:1037A00080B485B000AF78600A4B1B680A4AA2FB60
:1037B00003235B0A7A6802FB03F3FB6000BFFB682C
:1037C0005A1EFA60002BF9D100BF00BF1437BD4666
:1037D00080BC704704000020D34D621080B582B0D9
:1037E00000AF78607B68002B01D1012341E07B684A
:1037F00093F83D30DBB2002B06D17B68002283F8C2
:103800003C207868FEF78EFE7B68022283F83D201C
:103810007B681A687B6804331946104600F056FE30
:103820007B68012283F846207B68012283F83E20D2
:103830007B68012283F83F207B68012283F84020C7
:103840007B68012283F841207B68012283F84220B3
:103850007B68012283F843207B68012283F844209F
:103860007B68012283F845207B68012283F83D2094
:10387000002318460837BD4680BD000080B485B0DF
:1038800000AF78607B6893F83D30DBB2012B01D04C
:1038900001233AE07B68022283F83D207B681B68A5
:1038A000DA687B681B6842F00102DA607B681B689B
:1038B000184A93420ED07B681B68B3F1804F09D041
:1038C0007B681B68144A934204D07B681B68134AC8
:1038D000934211D17B681B689B6803F00703FB6070
:1038E000FB68062B10D07B681B681A687B681B6816
:1038F00042F001021A6007E07B681B681A687B6867
:103900001B6842F001021A60002318461437BD46B6
:1039100080BC7047002C01400004004000080040BB
:1039200080B582B000AF78607B68002B01D10123A5
:1039300041E07B6893F83D30DBB2002B06D17B6819
:10394000002283F83C20786800F039F87B68022276
:1039500083F83D207B681A687B680433194610465B
:1039600000F0B4FD7B68012283F846207B680122C9
:1039700083F83E207B68012283F83F207B68012288
:1039800083F840207B68012283F841207B68012274
:1039900083F842207B68012283F843207B68012260
:1039A00083F844207B68012283F845207B6801224C
:1039B00083F83D20002318460837BD4680BD80B4FB
:1039C00083B000AF786000BF0C37BD4680BC704745
:1039D00080B584B000AF786039603B68002B09D1B6
:1039E0007B6893F83E30DBB2012B14BF0123002328
:1039F000DBB222E03B68042B09D17B6893F83F30AF
:103A0000DBB2012B14BF01230023DBB215E03B68BE
:103A1000082B09D17B6893F84030DBB2012B14BF2F
:103A200001230023DBB208E07B6893F84130DBB26E
:103A3000012B14BF01230023DBB2002B01D0012393
:103A40005EE03B68002B04D17B68022283F83E20B5
:103A500013E03B68042B04D17B68022283F83F20EB
:103A60000BE03B68082B04D17B68022283F84020DE
:103A700003E07B68022283F841207B681B680122F7
:103A80003968184601F0AFF87B681B681E4A9342FC
:103A900007D17B681B685A6C7B681B6842F4004244
:103AA0005A647B681B68184A93420ED07B681B6877
:103AB000B3F1804F09D07B681B68144A934204D04D
:103AC0007B681B68124A934211D17B681B689B6814
:103AD00003F00703FB60FB68062B10D07B681B68B4
:103AE0001A687B681B6842F001021A6007E07B6875
:103AF0001B681A687B681B6842F001021A60002389
:103B000018461037BD4680BD002C0140000400401F
:103B10000008004080B582B000AF78607B68002B61
:103B200001D1012341E07B6893F83D30DBB2002BEB
:103B300006D17B68002283F83C20786800F039F8D1
:103B40007B68022283F83D207B681A687B68043317
:103B50001946104600F0BAFC7B68012283F8462023
:103B60007B68012283F83E207B68012283F83F2096
:103B70007B68012283F840207B68012283F8412082
:103B80007B68012283F842207B68012283F843206E
:103B90007B68012283F844207B68012283F845205A
:103BA0007B68012283F83D20002318460837BD4674
:103BB00080BD80B483B000AF786000BF0C37BD46D5
:103BC00080BC704780B584B000AF786039603B68D6
:103BD000002B04D17B6893F83E30DBB213E03B68E6
:103BE000042B04D17B6893F83F30DBB20BE03B68D9
:103BF000082B04D17B6893F84030DBB203E07B688C
:103C000093F84130DBB2FB733B68002B04D17B6837
:103C100093F84230DBB213E03B68042B04D17B689D
:103C200093F84330DBB20BE03B68082B04D17B6890
:103C300093F84430DBB203E07B6893F84530DBB2A5
:103C4000BB73FB7B012B02D1BB7B012B01D001237A
:103C5000B3E03B68002B04D17B68022283F83E204E
:103C600013E03B68042B04D17B68022283F83F20D9
:103C70000BE03B68082B04D17B68022283F84020CC
:103C800003E07B68022283F841203B68002B04D1CB
:103C90007B68022283F8422013E03B68042B04D1A6
:103CA0007B68022283F843200BE03B68082B04D199
:103CB0007B68022283F8442003E07B68022283F8B9
:103CC00045203B680C2B41D801A252F823F000BFDD
:103CD000053D00084D3D00084D3D00084D3D0008E4
:103CE000173D00084D3D00084D3D00084D3D0008C2
:103CF000293D00084D3D00084D3D00084D3D0008A0
:103D00003B3D00087B681B68DA687B681B6842F0F3
:103D10000202DA601BE07B681B68DA687B681B685C
:103D200042F00402DA6012E07B681B68DA687B68A4
:103D30001B6842F00802DA6009E07B681B68DA68F9
:103D40007B681B6842F01002DA6000E000BF7B680D
:103D50001B6801223968184600F045FF7B681B6824
:103D6000184A93420ED07B681B68B3F1804F09D08C
:103D70007B681B68144A934204D07B681B68134A13
:103D8000934211D17B681B689B6803F00703BB60FB
:103D9000BB68062B10D07B681B681A687B681B68A1
:103DA00042F001021A6007E07B681B681A687B68B2
:103DB0001B6842F001021A60002318461037BD4606
:103DC00080BD00BF002C01400004004000080040FE
:103DD00080B582B000AF78607B681B681B6903F018
:103DE0000203022B22D17B681B68DB6803F002030D
:103DF000022B1BD17B681B686FF002021A617B6883
:103E000001221A777B681B689B6903F00303002B70
:103E100003D07868FEF752F805E0786800F03AFBC6
:103E2000786800F040FB7B6800221A777B681B688B
:103E30001B6903F00403042B22D17B681B68DB6839
:103E400003F00403042B1BD17B681B686FF0040292
:103E50001A617B6802221A777B681B689B6903F4EE
:103E60004073002B03D07868FEF728F805E07868E7
:103E700000F010FB786800F016FB7B6800221A77D0
:103E80007B681B681B6903F00803082B22D17B6841
:103E90001B68DB6803F00803082B1BD17B681B68D9
:103EA0006FF008021A617B6804221A777B681B682E
:103EB000DB6903F00303002B03D07868FDF7FEFFF6
:103EC00005E0786800F0E6FA786800F0ECFA7B68C4
:103ED00000221A777B681B681B6903F01003102B04
:103EE00022D17B681B68DB6803F01003102B1BD109
:103EF0007B681B686FF010021A617B6808221A77D2
:103F00007B681B68DB6903F44073002B03D078687F
:103F1000FDF7D4FF05E0786800F0BCFA786800F09F
:103F2000C2FA7B6800221A777B681B681B6903F062
:103F30000103012B0ED17B681B68DB6803F00103D2
:103F4000012B07D17B681B686FF001021A6178684A
:103F5000FDF7BFFF7B681B681B6903F08003802BA4
:103F60000ED17B681B68DB6803F08003802B07D1D0
:103F70007B681B686FF080021A61786800F0BFFEF2
:103F80007B681B681B6903F04003402B0ED17B68E4
:103F90001B68DB6803F04003402B07D17B681B687C
:103FA0006FF040021A61786800F086FA7B681B683F
:103FB0001B6903F02003202B0ED17B681B68DB6894
:103FC00003F02003202B07D17B681B686FF02002D1
:103FD0001A61786800F08AFE00BF0837BD4680BDD0
:103FE00080B584B000AFF860B9607A60FB6893F880
:103FF0003C30012B01D1022382E0FB68012283F8CF
:104000003C207B68002B1BD1FB681868BB681968D3
:10401000BB685A68BB68DB6800F042FCFB681B6841
:104020009A69FB681B6822F00C029A61FB681B68A6
:104030009969BB689A68FB681B680A439A615AE0F1
:104040007B68042B1CD1FB681868BB681968BB68C7
:104050005A68BB68DB6800F0ABFCFB681B689A69B8
:10406000FB681B6822F440629A61FB681B689969CF
:10407000BB689B681A02FB681B680A439A613AE0B6
:104080007B68082B1BD1FB681868BB681968BB6884
:104090005A68BB68DB6800F0F6FCFB681B68DA69ED
:1040A000FB681B6822F00C02DA61FB681B68D969A7
:1040B000BB689A68FB681B680A43DA611BE0FB680F
:1040C0001868BB681968BB685A68BB68DB6800F091
:1040D00015FDFB681B68DA69FB681B6822F4406207
:1040E000DA61FB681B68D969BB689B681A02FB68C8
:1040F0001B680A43DA61FB68002283F83C20002336
:1041000018461037BD4680BD80B584B000AFF8605A
:10411000B9607A60FB6893F83C30012B01D102232F
:10412000ACE0FB68012283F83C207B680C2B00F29A
:104130009F8001A252F823F06D41000871420008EF
:104140007142000871420008AD4100087142000848
:104150007142000871420008EF41000871420008F6
:1041600071420008714200082F420008FB681B687A
:10417000B968184600F00CFAFB681B689A69FB687E
:104180001B6842F008029A61FB681B689A69FB6829
:104190001B6822F004029A61FB681B689969BB687E
:1041A0001A69FB681B680A439A6162E0FB681B6836
:1041B000B968184600F052FAFB681B689A69FB68F8
:1041C0001B6842F400629A61FB681B689A69FB688D
:1041D0001B6822F480629A61FB681B689969BB685E
:1041E0001B691A02FB681B680A439A6141E0FB687D
:1041F0001B68B968184600F09BFAFB681B68DA690F
:10420000FB681B6842F00802DA61FB681B68DA6928
:10421000FB681B6822F00402DA61FB681B68D9693D
:10422000BB681A69FB681B680A43DA6121E0FB6816
:104230001B68B968184600F0E5FAFB681B68DA6984
:10424000FB681B6842F40062DA61FB681B68DA698C
:10425000FB681B6822F48062DA61FB681B68D9691D
:10426000BB681B691A02FB681B680A43DA6100E03D
:1042700000BFFB68002283F83C200023184610375B
:10428000BD4680BD80B584B000AF786039607B6882
:1042900093F83C30012B01D10223B3E07B6801226B
:1042A00083F83C207B68022283F83D207B681B68F2
:1042B0009B68FB60FB6823F07703FB60FB6823F4DB
:1042C0007F43FB607B681B68FA689A603B681B68E9
:1042D000B3F5005F3ED0B3F5005F00F28780B3F521
:1042E000805F00F08580B3F5805F7FD8702B1AD097
:1042F000702B7BD8602B50D0602B77D8502B3CD0C4
:10430000502B73D8402B58D0402B6FD8302B64D013
:10431000302B6BD8202B60D0202B67D8002B5CD0A3
:10432000102B5AD062E07B6818683B6899683B683C
:104330005A683B68DB6800F037FC7B681B689B6849
:10434000FB60FB6843F07703FB607B681B68FA68DF
:104350009A604EE07B6818683B6899683B685A68C9
:104360003B68DB6800F020FC7B681B689A687B6810
:104370001B6842F480429A603BE07B6818683B68A7
:1043800059683B68DB681A4600F0E4FA7B681B68F2
:104390005021184600F0EEFB2BE07B6818683B6864
:1043A00059683B68DB681A4600F03EFB7B681B6877
:1043B0006021184600F0DEFB1BE07B6818683B6854
:1043C00059683B68DB681A4600F0C4FA7B681B68D2
:1043D0004021184600F0CEFB0BE07B681A683B6872
:1043E0001B681946104600F0C5FB02E000BF00E064
:1043F00000BF7B68012283F83D207B68002283F8A0
:104400003C20002318461037BD4680BD80B485B0DF
:1044100000AF786039600023FB603B680C2B31D81B
:1044200001A252F823F000BF5D4400088544000853
:104430008544000885440008674400088544000856
:10444000854400088544000871440008854400083C
:1044500085440008854400087B4400087B681B688D
:104460005B6BFB600FE07B681B689B6BFB600AE08B
:104470007B681B68DB6BFB6005E07B681B681B6C63
:10448000FB6000E000BFFB6818461437BD4680BCE7
:10449000704700BF80B483B000AF786000BF0C37B6
:1044A000BD4680BC704780B483B000AF786000BF69
:1044B0000C37BD4680BC704780B483B000AF7860D5
:1044C00000BF0C37BD4680BC7047000080B485B08B
:1044D00000AF786039607B681B68FB607B68294AA5
:1044E00093420BD07B68B3F1804F07D07B68264A9C
:1044F000934203D07B68254A934208D1FB6823F09E
:104500007003FB603B685B68FA681343FB607B6881
:104510001C4A93420BD07B68B3F1804F07D07B6875
:10452000194A934203D07B68184A934208D1FB682A
:1045300023F44073FB603B68DB68FA681343FB605D
:10454000FB6823F080023B685B691343FB607B6878
:10455000FA681A603B689A687B68DA623B681A6896
:104560007B689A627B68074A934203D13B681A6969
:104570007B681A637B6801225A6100BF1437BD460D
:1045800080BC7047002C014000040040000800403F
:1045900080B487B000AF786039607B681B6A23F015
:1045A00001027B681A627B681B6A7B617B685B68BF
:1045B0003B617B689B69FB60FB6823F07003FB60D9
:1045C000FB6823F00303FB603B681B68FA68134336
:1045D000FB607B6923F002037B613B689B687A691F
:1045E00013437B617B681C4A93420CD17B6923F0A7
:1045F00008037B613B68DB687A6913437B617B69F5
:1046000023F004037B617B68134A934211D13B6919
:1046100023F480733B613B6923F400733B613B6887
:104620005B693A6913433B613B689B693A69134391
:104630003B617B683A695A607B68FA689A613B68BB
:104640005A687B685A637B687A691A6200BF1C37B4
:10465000BD4680BC704700BF002C014080B487B0CD
:1046600000AF786039607B681B6A23F010027B68BA
:104670001A627B681B6A7B617B685B683B617B6855
:104680009B69FB60FB6823F4E043FB60FB6823F459
:104690004073FB603B681B681B02FA681343FB60B6
:1046A0007B6923F020037B613B689B681B017A696F
:1046B00013437B617B681D4A93420DD17B6923F0D4
:1046C00080037B613B68DB681B017A6913437B6174
:1046D0007B6923F040037B617B68144A934213D1CA
:1046E0003B6923F480633B613B6923F400633B61D6
:1046F0003B685B699B003A6913433B613B689B697C
:104700009B003A6913433B617B683A695A607B6856
:10471000FA689A613B685A687B689A637B687A6931
:104720001A6200BF1C37BD4680BC7047002C014098
:1047300080B487B000AF786039607B681B6A23F46F
:1047400080727B681A627B681B6A7B617B685B682E
:104750003B617B68DB69FB60FB6823F07003FB60F7
:10476000FB6823F00303FB603B681B68FA68134394
:10477000FB607B6923F400737B613B689B681B02D1
:104780007A6913437B617B681D4A93420DD17B6933
:1047900023F400637B613B68DB681B027A69134387
:1047A0007B617B6923F480637B617B68144A93425D
:1047B00013D13B6923F480533B613B6923F40053DD
:1047C0003B613B685B691B013A6913433B613B6892
:1047D0009B691B013A6913433B617B683A695A60E4
:1047E0007B68FA68DA613B685A687B68DA637B68E1
:1047F0007A691A6200BF1C37BD4680BC704700BF93
:10480000002C014080B487B000AF786039607B68CD
:104810001B6A23F480527B681A627B681B6A3B61C7
:104820007B685B687B617B68DB69FB60FB6823F40A
:10483000E043FB60FB6823F44073FB603B681B684C
:104840001B02FA681343FB603B6923F400533B618E
:104850003B689B681B033A6913433B617B680F4AC3
:10486000934209D17B6923F480437B613B685B6998
:104870009B017A6913437B617B687A695A607B6824
:10488000FA68DA613B685A687B681A647B683A693F
:104890001A6200BF1C37BD4680BC7047002C014027
:1048A00080B487B000AFF860B9607A603B60FB68A5
:1048B0001B6A23F00102FB681A62FB689B697B613B
:1048C000FB681B6A3B61FB681F4A93420BD0FB6885
:1048D000B3F1804F07D0FB681C4A934203D0FB68BA
:1048E0001B4A934201D1012300E00023002B08D092
:1048F0007B6923F003037B617A697B6813437B61E7
:1049000003E07B6943F001037B617B6923F0F003E3
:104910007B613B681B01DBB27A6913437B613B69B6
:1049200023F00A033B61BB6803F00A033A691343AF
:104930003B61FB687A699A61FB683A691A6200BF59
:104940001C37BD4680BC7047002C0140000400406D
:104950000008004080B487B000AFF860B9607A60AA
:10496000FB681B6A7B61FB681B6A23F00102FB6822
:104970001A62FB689B693B613B6923F0F0033B6172
:104980007B681B013A6913433B617B6923F00A038F
:104990007B617A69BB6813437B61FB683A699A6102
:1049A000FB687A691A6200BF1C37BD4680BC70473D
:1049B00080B487B000AFF860B9607A603B60FB6894
:1049C0001B6A23F01002FB681A62FB689B697B611B
:1049D000FB681B6A3B617B6923F440737B617B68E6
:1049E0001B027A6913437B617B6923F470437B610B
:1049F0003B681B039BB27A6913437B613B6923F0DD
:104A0000A0033B61BB681B0103F0A0033A69134399
:104A10003B61FB687A699A61FB683A691A6200BF78
:104A20001C37BD4680BC704780B487B000AFF860CB
:104A3000B9607A60FB681B6A23F01002FB681A6297
:104A4000FB689B697B61FB681B6A3B617B6923F4A4
:104A500070437B617B681B037A6913437B613B690D
:104A600023F0A0033B61BB681B013A6913433B6120
:104A7000FB687A699A61FB683A691A6200BF1C3761
:104A8000BD4680BC704780B487B000AFF860B960A5
:104A90007A603B60FB681B6A23F48072FB681A62D1
:104AA000FB68DB697B61FB681B6A3B617B6923F008
:104AB00003037B617A697B6813437B617B6923F025
:104AC000F0037B613B681B01DBB27A6913437B61B6
:104AD0003B6923F400733B61BB681B0203F4007362
:104AE0003A6913433B61FB687A69DA61FB683A69AA
:104AF0001A6200BF1C37BD4680BC704780B487B0C7
:104B000000AFF860B9607A603B60FB681B6A23F411
:104B10008052FB681A62FB68DB697B61FB681B6A79
:104B20003B617B6923F440737B617B681B027A697C
:104B300013437B617B6923F470437B613B681B03F8
:104B40009BB27A6913437B613B6923F400533B6159
:104B5000BB681B0303F400533A6913433B61FB68D2
:104B60007A69DA61FB683A691A6200BF1C37BD4690
:104B700080BC704780B485B000AF786039607B68D6
:104B80009B68FB60FB6823F07003FB603A68FB687E
:104B9000134343F00703FB607B68FA689A6000BF29
:104BA0001437BD4680BC704780B487B000AFF86052
:104BB000B9607A603B60FB689B687B617B6923F42A
:104BC0007F437B613B681A027B681A43BB681343CF
:104BD0007A6913437B61FB687A699A6000BF1C376E
:104BE000BD4680BC704780B487B000AFF860B96044
:104BF0007A60BB6803F01F03012202FA03F37B61B2
:104C0000FB681A6A7B69DB431A40FB681A62FB681F
:104C10001A6ABB6803F01F03796801FA03F31A43A9
:104C2000FB681A6200BF1C37BD4680BC704700009D
:104C300080B485B000AF786039607B6893F83C3011
:104C4000012B01D1022346E07B68012283F83C203E
:104C50007B68022283F83D207B681B685B68FB60F1
:104C60007B681B689B68BB60FB6823F07003FB607C
:104C70003B681B68FA681343FB607B681B68FA6833
:104C80005A607B681B68164A93420ED07B681B688B
:104C9000B3F1804F09D07B681B68124A934204D05D
:104CA0007B681B68104A93420CD1BB6823F08003D9
:104CB000BB603B685B68BA681343BB607B681B687A
:104CC000BA689A607B68012283F83D207B680022E5
:104CD00083F83C20002318461437BD4680BC70473B
:104CE000002C0140000400400008004080B483B064
:104CF00000AF786000BF0C37BD4680BC704780B401
:104D000083B000AF786000BF0C37BD4680BC7047F1
:104D100080B582B000AF78607B68002B01D10123A1
:104D20003FE07B6893F83D30DBB2002B06D17B6817
:104D3000002283F83C207868FDF7DCFC7B682422A5
:104D400083F83D207B681B68DA687B681B6822F467
:104D50000052DA60786800F085FC7B681B681A698D
:104D60007B681B6822F490421A617B681B685A6951
:104D70007B681B6822F02A025A617B681B68DA682C
:104D80007B681B6842F40052DA607B6800221A6478
:104D90007B68202283F83D207B68202283F83E2018
:104DA000002318460837BD4680BD80B58AB002AFE3
:104DB000F860B9603B601346FB8000237B61FB68B1
:104DC00093F83D30DBB2202B7CD1BB68002B02D0A6
:104DD000FB88002B01D1012375E0FB6893F83C3080
:104DE000012B01D102236EE0FB68012283F83C20F5
:104DF000FB6800221A64FB68212283F83D20FDF73E
:104E00004BFD7861FB68FA889A84FB68FA88DA843B
:104E1000FB689B68B3F5805F08D1FB681B69002BBA
:104E200004D10023FB61BB68BB6103E0BB68FB618D
:104E30000023BB61FB68002283F83C202AE03B682A
:104E400000937B6900228021F86800F038FA03465D
:104E5000002B01D0032336E0FB69002B0BD1BB698B
:104E60001B881A46FB681B68C2F308025A60BB69BC
:104E70000233BB6107E0FB691A78FB681B685A6064
:104E8000FB690133FB61FB68DB8C9BB2013B9AB28F
:104E9000FB68DA84FB68DB8C9BB2002BCFD13B68CC
:104EA00000937B6900224021F86800F008FA03466D
:104EB000002B01D0032306E0FB68202283F83D206D
:104EC000002300E0022318462037BD4680BD80B590
:104ED00084B000AFF860B9601346FB80FB6893F8BC
:104EE0003E30DBB2202B1DD1BB68002B02D0FB88EB
:104EF000002B01D1012316E0FB6893F83C30012B15
:104F000001D102230FE0FB68012283F83C20FB68FB
:104F100000221A63FB881A46B968F86800F019FA8B
:104F2000034600E0022318461037BD4680BD00004E
:104F300080B58AB000AF78607B681B681B687B62B5
:104F40007B681B68DB683B627B681B685B69FB6195
:104F50000023BB6100237B617B6A03F00F03BB610D
:104F6000BB69002B0DD17B6A03F02003002B08D016
:104F70003B6A03F02003002B03D0786800F0C9FAE5
:104F80007BE1BB69002B00F0B180FB6903F00103FA
:104F9000002B05D13B6A03F49073002B00F0A68030
:104FA0007B6A03F00103002B0AD03B6A03F4807391
:104FB000002B05D07B681B6C43F001027B681A64F0
:104FC0007B6A03F00403002B0AD0FB6903F00103A2
:104FD000002B05D07B681B6C43F002027B681A64CF
:104FE0007B6A03F00203002B0AD0FB6903F0010384
:104FF000002B05D07B681B6C43F004027B681A64AD
:105000007B6A03F00803002B0FD03B6A03F02003F8
:10501000002B04D1FB6903F00103002B05D07B6852
:105020001B6C43F008027B681A647B681B6C002BC6
:1050300000F01E817B6A03F02003002B07D03B6A3F
:1050400003F02003002B02D0786800F062FA7B683E
:105050001B685B6903F04003002B14BF012300238E
:10506000DBB27B617B681B6C03F00803002B02D171
:105070007B69002B31D0786800F0A4F97B681B684D
:105080005B6903F04003002B23D07B681B685A69DF
:105090007B681B6822F040025A617B689B6B002B87
:1050A00013D07B689B6B764A5A637B689B6B184670
:1050B000FDF768FD0346002B16D07B689B6B5B6B8E
:1050C0007A68926B104698470EE0786800F0E3F833
:1050D0000AE0786800F0DFF806E0786800F0DBF8B6
:1050E0007B6800221A64C3E000BFC1E07B681B6BD1
:1050F000012B40F0A1807B6A03F01003002B00F02D
:105100009B803B6A03F01003002B00F09580002386
:10511000FB607B681B681B68FB607B681B685B68C7
:10512000FB60FB687B681B685B6903F04003002B36
:105130004ED07B689B6B1B685B683B823B8A002B75
:1051400000F098807B689B8D3A8A9A4280F092802A
:105150007B683A8ADA857B689B6B9B69202B2BD016
:105160007B681B68DA687B681B6822F48072DA60EF
:105170007B681B685A697B681B6822F001025A61D0
:105180007B681B685A697B681B6822F040025A6181
:105190007B68202283F83E207B6800221A637B68AC
:1051A0001B68DA687B681B6822F01002DA607B6893
:1051B0009B6B1846FDF7ABFC7B689A8D7B68DB8D9B
:1051C0009BB2D31A9BB21946786800F06DF851E093
:1051D0007B689A8D7B68DB8D9BB2D31A7B827B6860
:1051E000DB8D9BB2002B47D07B8A002B44D07B68A1
:1051F0001B68DA687B681B6822F49072DA607B684F
:105200001B685A697B681B6822F001025A617B683F
:10521000202283F83E207B6800221A637B681B688B
:10522000DA687B681B6822F01002DA607B8A194614
:10523000786800F039F81FE07B6A03F08003002BE8
:1052400008D03B6A03F08003002B03D0786800F09D
:10525000F9F812E07B6A03F04003002B0DD03B6AA3
:1052600003F04003002B08D0786800F03AF904E01E
:1052700000BF02E000BF00E000BF2837BD4680BD90
:105280001D54000880B483B000AF786000BF0C37B5
:10529000BD4680BC704780B483B000AF786000BF6B
:1052A0000C37BD4680BC704780B483B000AF7860D7
:1052B0000B467B8000BF0C37BD4680BC704780B575
:1052C00084B000AFF860B9603B601346FB712CE01E
:1052D000BB69B3F1FF3F28D0BB69002B07D0FDF7B6
:1052E000DBFA02463B68D31ABA699A421DD2FB68C0
:1052F0001B68DA68FB681B6822F4D072DA60FB680E
:105300001B685A69FB681B6822F001025A61FB683E
:10531000202283F83D20FB68202283F83E20FB6892
:10532000002283F83C2003230FE0FB681B681A6807
:10533000BB681340BA689A420CBF01230023DBB25A
:105340001A46FB799A42C3D0002318461037BD464F
:1053500080BD80B485B000AFF860B9601346FB80B3
:10536000FB68BA689A62FB68FA889A85FB68FA88D3
:10537000DA85FB6800221A64FB68222283F83E204B
:10538000FB68002283F83C20FB681B68DA68FB6836
:105390001B6842F48072DA60FB681B685A69FB681C
:1053A0001B6842F001025A61FB681B68DA68FB68FF
:1053B0001B6842F02002DA60002318461437BD460D
:1053C00080BC704780B483B000AF78607B681B6896
:1053D000DA687B681B6822F49072DA607B681B686D
:1053E0005A697B681B6822F001025A617B681B6B5B
:1053F000012B07D17B681B68DA687B681B6822F089
:105400001002DA607B68202283F83E207B6800224D
:105410001A6300BF0C37BD4680BC704780B584B0AE
:1054200000AF78607B685B6AFB60FB680022DA850E
:10543000FB680022DA84F868FFF72DFF00BF103701
:10544000BD4680BD80B485B000AF78607B6893F8BE
:105450003D30DBB2212B3ED17B689B68B3F5805F8A
:1054600014D17B681B69002B10D17B681B6AFB6021
:10547000FB681B881A467B681B68C2F308025A60E7
:105480007B681B6A9A1C7B681A6208E07B681B6A4F
:10549000591C7A6811621A787B681B685A607B68AD
:1054A000DB8C9BB2013B9BB27A681946D184002BFE
:1054B0000FD17B681B68DA687B681B6822F080026A
:1054C000DA607B681B68DA687B681B6842F0400220
:1054D000DA60002300E0022318461437BD4680BC82
:1054E000704780B582B000AF78607B681B68DA686F
:1054F0007B681B6822F04002DA607B68202283F818
:105500003D207868FFF7BEFE002318460837BD46E9
:1055100080BD80B586B000AF78607B6893F83E3080
:10552000DBB2222B40F099807B689B68B3F5805FEB
:1055300017D17B681B69002B13D100237B617B682B
:105540009B6A3B617B681B685B689BB2C3F3080383
:105550009AB23B691A807B689B6A9A1C7B689A6244
:1055600026E07B689B6A7B6100233B617B689B68CC
:10557000B3F5805F07D07B689B68002B0AD17B68FE
:105580001B69002B06D17B681B685B68DAB27B69FC
:105590001A7008E07B681B685B68DBB203F07F036E
:1055A000DAB27B691A707B689B6A5A1C7B689A62C4
:1055B0007B68DB8D9BB2013B9BB27A681946D18533
:1055C000002B48D17B681B68DA687B681B6822F077
:1055D0002002DA607B681B68DA687B681B6822F44B
:1055E0008072DA607B681B685A697B681B6822F0EE
:1055F00001025A617B68202283F83E207B681B6B86
:10560000012B23D17B6800221A637B681B68DA6850
:105610007B681B6822F01002DA607B681B681B68DD
:1056200003F01003102B0AD10023FB607B681B687A
:105630001B68FB607B681B685B68FB60FB687B68C2
:105640009B8D19467868FFF72FFE02E07868FCF71B
:10565000BFFD002302E0002300E0022318461837B4
:10566000BD4680BD80B584B000AF78607B681B68A4
:105670001B6923F440517B68DA687B681B680A4326
:105680001A617B689A687B681B691A437B685B694F
:105690001343BB607B681B68DB6823F4B05323F0C3
:1056A0000C037A681268B9680B43D3607B681B6887
:1056B0005B6923F440717B689A697B681B680A43C5
:1056C0005A617B681B682C4A934203D1FEF754F859
:1056D000F86002E0FEF73CF8F860FA6813469B00B9
:1056E00013449A001A447B685B689B00B2FBF3F397
:1056F000224AA2FB03235B091901FA6813469B00A7
:1057000013449A001A447B685B689B00B2FBF3F277
:105710001A4BA3FB02035B09642000FB03F3D31ABB
:105720001B013233154AA2FB03235B0903F0F0038C
:105730001944FA6813469B0013449A001A447B6884
:105740005B689B00B2FBF3F20C4BA3FB02035B090B
:10575000642000FB03F3D31A1B013233074AA2FB78
:1057600003235B0903F00F027B681B680A449A60FD
:1057700000BF1037BD4680BD003801401F85EB518A
:10578000002B2DE9F0471F46BBBF03F100431F4626
:1057900000232D2388B01446129A109D1370149B79
:1057A000DDF84CA023F02008B8F1460F05D0B8F181
:1057B000450F00D10135022300E0032307AA04921C
:1057C00006AACDE902A2CDE9003522463B4600F00B
:1057D00073FEB8F1470F064602D1119BDB0722D5B5
:1057E000B8F1460F06EB050910D13378302B0AD1FA
:1057F0000022002320463946FBF7D6F818B9C5F138
:105800000105CAF80050DAF800309944002200235C
:1058100020463946FBF7C8F808B1CDF81C90302275
:10582000079B4B4507D33046079B159A9B1B13607C
:1058300008B0BDE8F087591C07911A70F0E70346DD
:10584000F7B5002903F8022BB6BF2D222B224942BF
:10585000092942702ADD0DF1070217460A2691FB3D
:10586000F6F5944606FB151430340CF8014C0C4642
:10587000632C294602F1FF32F1DC3031ACF1020435
:1058800002F8011C2246411CBA420AD30DF109025A
:10589000A2EB0C02BC4288BF00221344181A03B0CA
:1058A000F0BD12F8015B01F8015FEDE73023303104
:1058B0008370C170031DF1E72DE9F04F91B00C46E4
:1058C000DDF8688016461F46054600F0E5FC0368D3
:1058D00018460993FAF73CFC00230E93D8F80030E1
:1058E0000A90073323F0070303F1080294F8189095
:1058F000D4F800B0C8F80020D3E900A852464346C7
:10590000C4E9122328F000430B934FF0FF325046B6
:105910009C4B0B99FBF77AF870BB4FF0FF32504667
:10592000984B0B99FBF754F830BB002200235046EC
:105930004146FBF743F810B12D2384F84330924AD7
:10594000924BB9F1470F94BF9046984603234FF00E
:10595000000A23612BF004032360334621462846C6
:1059600000970FAA00F0D6F9013040F090804FF078
:10597000FF3011B0BDE8F08F5246434650464146D5
:10598000FBF744F848B1B8F1000FB8BF2D23804AA7
:10599000B8BF84F843307F4BD3E7636809F0DF0179
:1059A0005A1C42D106236360002206920EAACDE95A
:1059B00004920DAA4BF4806303920DF13302CDE9FA
:1059C00001322360636852460093284643460B9198
:1059D000FFF7D6FE0B99804647290D9908D1C81CC0
:1059E00002DB6368994240DDA9F102095FFA89F997
:1059F000B9F1650F1FD84A46013904F150000D91E5
:105A0000FFF71DFF0E9A82461318012A236102DC5C
:105A10002268D20701D5013323619DF83330002B72
:105A20009BD02D2384F8433097E74729BCD1002B26
:105A3000BAD10123B7E7B9F1660F18D1002963681D
:105A40000BDD216113B92268D00702D501330B4465
:105A500023614FF0000AA165DFE713B92268D2077E
:105A600001D50233F4E70123F2E74FF067090E9BFB
:105A7000994205DB23682161D807EAD54B1CE7E78B
:105A80000029CCBF0122C1F102021344E0E72368E0
:105A90005A0507D42369424631462846B8470130A3
:105AA0002BD164E7B9F1650F40F2DD80D4E9120132
:105AB00000220023FAF778FF002833D00123314673
:105AC0002846354AB84701303FF451AFDDE90D2390
:105AD0009A4202DB2368D8070FD5DDE90923314656
