:020000040800F2
:1000000000500020152200087D1D0008831D0008F7
:10001000891D00088F1D0008951D000800000000C4
:100020000000000000000000000000009B1D000810
:10003000A71D000800000000B31D0008BF1D000838
:100040005D2200085D2200085D2200085D22000894
:100050005D2200085D2200085D2200085D22000884
:100060005D2200085D2200085D2200085D22000874
:100070005D2200085D2200085D2200085D22000864
:100080005D2200085D2200085D2200085D22000854
:100090005D2200085D2200085D2200085D22000844
:1000A0005D2200085D2200085D2200085D22000834
:1000B0005D220008D11D0008E51D00085D22000832
:1000C0005D2200085D2200085D2200085D22000814
:1000D0005D220008F91D00085D2200085D2200086D
:1000E0005D2200085D2200085D220008000000007B
:1000F0000000000000000000000000000000000000
:0C01000000000000000000005FF808F1A3
:1001100010B5054C237833B9044B13B10448AFF341
:1001200000800123237010BDD801002000000000D2
:10013000448F000808B5034B1BB103490348AFF3D4
:10014000008008BD00000000DC010020448F000892
:10015000034613F8012B002AFBD1181A0138704707
:1001600081F0004102E000BF83F0004330B54FEA68
:1001700041044FEA430594EA050F08BF90EA020FD5
:100180001FBF54EA000C55EA020C7FEA645C7FEA68
:10019000655C00F0E2804FEA5454D4EB5555B8BF8B
:1001A0006D420CDD2C4480EA020281EA030382EAFC
:1001B000000083EA010180EA020281EA0303362D8E
:1001C00088BF30BD11F0004F4FEA01314FF4801C61
:1001D0004CEA113102D0404261EB410113F0004F73
:1001E0004FEA03334CEA133302D0524263EB43032A
:1001F00094EA050F00F0A780A4F10104D5F1200EC8
:100200000DDB02FA0EFC22FA05F2801841F1000122
:1002100003FA0EF2801843FA05F359410EE0A5F1F6
:1002200020050EF1200E012A03FA0EFC28BF4CF027
:10023000020C43FA05F3C01851EBE37101F00045DD
:1002400007D54FF0000EDCF1000C7EEB00006EEBEA
:100250000101B1F5801F1BD3B1F5001F0CD3490874
:100260005FEA30004FEA3C0C04F101044FEA4452CB
:1002700012F5800F80F09A80BCF1004F08BF5FEA52
:10028000500C50F1000041EB045141EA050130BD32
:100290005FEA4C0C404141EB0101013C28BFB1F544
:1002A000801FE9D291F0000F04BF01460020B1FA8F
:1002B00081F308BF2033A3F10B03B3F120020CDA62
:1002C0000C3208DD02F1140CC2F10C0201FA0CF040
:1002D00021FA02F10CE002F11402D8BFC2F1200CA5
:1002E00001FA02F120FA0CFCDCBF41EA0C0190405B
:1002F000E41AA2BF01EB0451294330BD6FEA0404A4
:100300001F3C1CDA0C340EDC04F11404C4F120028E
:1003100020FA04F001FA02F340EA030021FA04F3A0
:1003200045EA030130BDC4F10C04C4F1200220FAF7
:1003300002F001FA04F340EA0300294630BD21FA35
:1003400004F0294630BD94F0000F83F4801306BFFB
:1003500081F480110134013D4EE77FEA645C18BFEF
:100360007FEA655C29D094EA050F08BF90EA020F86
:1003700005D054EA000C04BF1946104630BD91EA7E
:10038000030F1EBF0021002030BD5FEA545C05D181
:100390004000494128BF41F0004130BD14F58004C0
:1003A0003CBF01F5801130BD01F0004545F0FE4134
:1003B00041F470014FF0000030BD7FEA645C1ABF69
:1003C000194610467FEA655C1CBF0B46024650EAA0
:1003D000013406BF52EA033591EA030F41F40021CC
:1003E00030BD00BF90F0000F04BF0021704730B552
:1003F0004FF4806404F132044FF000054FF0000127
:1004000050E700BF90F0000F04BF0021704730B5E7
:100410004FF4806404F1320410F0004548BF4042BC
:100420004FF000013EE700BF42004FEAE2014FEA11
:1004300031014FEA02701FBF12F07F4393F07F4FEC
:1004400081F06051704732F07F4208BF704793F0EF
:100450007F4F04BF41F40021704730B54FF4607402
:1004600001F0004521F000411CE700BF50EA010205
:1004700008BF704730B54FF000050AE050EA0102AE
:1004800008BF704730B511F0004502D5404261EB1E
:1004900041014FF4806404F132045FEA915C3FF45F
:1004A000D8AE4FF003025FEADC0C18BF03325FEAFC
:1004B000DC0C18BF033202EBDC02C2F1200300FAAD
:1004C00003FC20FA02F001FA03FE40EA0E0021FAD2
:1004D00002F11444BDE600BF70B54FF0FF0C4CF4C0
:1004E000E06C1CEA11541DBF1CEA135594EA0C0F72
:1004F00095EA0C0F00F0DEF82C4481EA030621EAAD
:100500004C5123EA4C5350EA013518BF52EA0335E7
:1005100041F4801143F4801338D0A0FB02CE4FF099
:100520000005E1FB02E506F00042E0FB03E54FF0C9
:100530000006E1FB03569CF0000F18BF4EF0010EC1
:10054000A4F1FF04B6F5007F64F5407404D25FEABD
:100550004E0E6D4146EB060642EAC62141EA555170
:100560004FEAC52040EA5E504FEACE2EB4F1FD0CB2
:1005700088BFBCF5E06F1ED8BEF1004F08BF5FEA30
:10058000500E50F1000041EB045170BD06F00046E2
:1005900046EA010140EA020081EA0301B4EB5C048F
:1005A000C2BFD4EB0C0541EA045170BD41F4801187
:1005B0004FF0000E013C00F3AB8014F1360FDEBFAC
:1005C000002001F0004170BDC4F10004203C35DA88
:1005D0000C341BDC04F11404C4F1200500FA05F30B
:1005E00020FA04F001FA05F240EA020001F00042AC
:1005F00021F0004110EBD37021FA04F642EB060122
:100600005EEA430E08BF20EAD37070BDC4F10C044B
:10061000C4F1200500FA04F320FA05F001FA04F20F
:1006200040EA020001F0004110EBD37041F10001FB
:100630005EEA430E08BF20EAD37070BDC4F1200506
:1006400000FA05F24EEA020E20FA04F301FA05F26E
:1006500043EA020321FA04F001F0004121FA04F216
:1006600020EA020000EBD3705EEA430E08BF20EAE6
:10067000D37070BD94F0000F0FD101F00046400020
:1006800041EB010111F4801F08BF013CF7D041EAA2
:10069000060195F0000F18BF704703F000465200A6
:1006A00043EB030313F4801F08BF013DF7D043EA77
:1006B0000603704794EA0C0F0CEA135518BF95EA2D
:1006C0000C0F0CD050EA410618BF52EA4306D1D1B4
:1006D00081EA030101F000414FF0000070BD50EAD3
:1006E000410606BF1046194652EA430619D094EA5D
:1006F0000C0F02D150EA013613D195EA0C0F05D147
:1007000052EA03361CBF104619460AD181EA03019A
:1007100001F0004141F0FE4141F470014FF0000052
:1007200070BD41F0FE4141F4780170BD70B54FF0ED
:10073000FF0C4CF4E06C1CEA11541DBF1CEA13556D
:1007400094EA0C0F95EA0C0F00F0A7F8A4EB05044F
:1007500081EA030E52EA03354FEA013100F0888046
:100760004FEA03334FF0805545EA131343EA12630F
:100770004FEA022245EA111545EA10654FEA0026C4
:100780000EF000419D4208BF964244F1FD0404F57D
:10079000407402D25B084FEA3202B61A65EB0305D9
:1007A0005B084FEA32024FF480104FF4002CB6EB96
:1007B000020E75EB030E22BFB61A754640EA0C0016
:1007C0005B084FEA3202B6EB020E75EB030E22BF56
:1007D000B61A754640EA5C005B084FEA3202B6EB97
:1007E000020E75EB030E22BFB61A754640EA9C0056
:1007F0005B084FEA3202B6EB020E75EB030E22BF26
:10080000B61A754640EADC0055EA060E18D04FEAE3
:10081000051545EA16754FEA06164FEAC30343EA83
:1008200052734FEAC2025FEA1C1CC0D111F4801F50
:100830000BD141EA00014FF000004FF0004CB6E749
:1008400011F4801F04BF01430020B4F1FD0C88BFE8
:10085000BCF5E06F3FF6AFAEB5EB030C04BFB6EBF3
:10086000020C5FEA500C50F1000041EB045170BDE6
:100870000EF0004E4EEA113114EB5C04C2BFD4EB13
:100880000C0541EA045170BD41F480114FF0000E97
:10089000013C90E645EA060E8DE60CEA135594EA13
:1008A0000C0F08BF95EA0C0F3FF43BAF94EA0C0F16
:1008B0000AD150EA01347FF434AF95EA0C0F7FF48B
:1008C00025AF104619462CE795EA0C0F06D152EADF
:1008D00003353FF4FDAE1046194622E750EA4106C3
:1008E00018BF52EA43067FF4C5AE50EA41047FF4D4
:1008F0000DAF52EA43057FF4EBAE12E74FF0FF3C39
:1009000006E000BF4FF0010C02E000BF4FF0010C09
:100910004DF804CD4FEA410C7FEA6C5C4FEA430C82
:1009200018BF7FEA6C5C1BD001B050EA410C0CBFD1
:1009300052EA430C91EA030F02BF90EA020F002033
:10094000704710F1000F91EA030F58BF994208BF9A
:1009500090422CBFD8176FEAE37040F00100704757
:100960004FEA410C7FEA6C5C02D150EA013C07D1AE
:100970004FEA430C7FEA6C5CD6D152EA033CD3D0F9
:100980005DF8040B704700BF8446104662468C46F3
:100990001946634600E000BF01B5FFF7B7FF002826
:1009A00048BF10F1000F01BD4DF808EDFFF7F4FF4F
:1009B0000CBF012000205DF808FB00BF4DF808EDDA
:1009C000FFF7EAFF34BF012000205DF808FB00BFFD
:1009D0004DF808EDFFF7E0FF94BF012000205DF81F
:1009E00008FB00BF4DF808EDFFF7CEFF94BF0120D4
:1009F00000205DF808FB00BF4DF808EDFFF7C4FFCD
:100A000034BF012000205DF808FB00BF4FEA410C15
:100A10007FEA6C5C02D150EA013C0AD14FEA430CF8
:100A20007FEA6C5C02D152EA033C02D14FF0000035
:100A300070474FF0010070474FEA410212F5001273
:100A400015D211D56FF47873B3EB625212D94FEA15
:100A5000C12343F0004343EA505311F0004F23FAFF
:100A600002F018BF404270474FF00000704750EA54
:100A7000013005D111F0004008BF6FF00040704711
:100A80004FF00000704700BF4FEA4102B2F1E0436F
:100A900024BFB3F5001CDCF1FE5C0DD901F0004C65
:100AA0004FEAC0024CEA5070B2F1004F40EB8300B5
:100AB00008BF20F00100704711F0804F21D113F1E1
:100AC0003872BCBF01F00040704741F480114FEA1A
:100AD0005252C2F11802C2F1200C10FA0CF320FAA3
:100AE00002F018BF40F001004FEAC1234FEAD323C0
:100AF00003FA0CFC40EA0C0023FA02F34FEA43032A
:100B0000CCE77FEA625307D150EA01331EBF4FF0B2
:100B1000FE4040F44000704701F0004040F0FE40CD
:100B200040F40000704700BF80F0004002E000BFCA
:100B300081F0004142001FBF5FEA410392EA030FC8
:100B40007FEA226C7FEA236C6AD04FEA1262D2EB12
:100B50001363C1BFD218414048404140B8BF5B4217
:100B6000192B88BF704710F0004F40F4000020F0B0
:100B70007F4018BF404211F0004F41F4000121F0C6
:100B80007F4118BF494292EA030F3FD0A2F1010210
:100B900041FA03FC10EB0C00C3F1200301FA03F14E
:100BA00000F0004302D5494260EB4000B0F5000F71
:100BB00013D3B0F1807F06D340084FEA310102F130
:100BC0000102FE2A51D2B1F1004F40EBC25008BFE2
:100BD00020F0010040EA03007047490040EB0000AC
:100BE000013A28BFB0F5000FEDD2B0FA80FCACF1AD
:100BF000080CB2EB0C0200FA0CF0AABF00EBC250DA
:100C000052421843BCBFD0401843704792F0000FC7
:100C100081F4000106BF80F400000132013BB5E71A
:100C20004FEA41037FEA226C18BF7FEA236C21D090
:100C300092EA030F04D092F0000F08BF08467047F5
:100C400090EA010F1CBF0020704712F07F4F04D1C3
:100C5000400028BF40F00040704712F100723CBFD6
:100C600000F50000704700F0004343F0FE4040F400
:100C7000000070477FEA226216BF08467FEA2363BE
:100C80000146420206BF5FEA412390EA010F40F4A9
:100C9000800070474FF0000304E000BF10F00043F5
:100CA00048BF40425FEA000C08BF704743F09643DC
:100CB00001464FF000001CE050EA010208BF7047F7
:100CC0004FF000030AE000BF50EA010208BF70477E
:100CD00011F0004302D5404261EB41015FEA010C93
:100CE00002BF84460146002043F0B64308BFA3F18B
:100CF0008053A3F50003BCFA8CF2083AA3EBC2536D
:100D000010DB01FA02FC634400FA02FCC2F120028B
:100D1000BCF1004F20FA02F243EB020008BF20F0C2
:100D20000100704702F1200201FA02FCC2F1200228
:100D300050EA4C0021FA02F243EB020008BF20EA1D
:100D4000DC7070474FF0FF0C1CEAD0521EBF1CEA4B
:100D5000D15392EA0C0F93EA0C0F6FD01A4480EA39
:100D6000010C400218BF5FEA41211ED04FF0006322
:100D700043EA501043EA5111A0FB01310CF000404E
:100D8000B1F5000F3EBF490041EAD3715B0040EA74
:100D9000010062F17F02FD2A1DD8B3F1004F40EB44
:100DA000C25008BF20F00100704790F0000F0CF017
:100DB000004C08BF49024CEA502040EA51207F3ADB
:100DC000C2BFD2F1FF0340EAC250704740F40000B6
:100DD0004FF00003013A5DDC12F1190FDCBF00F0A7
:100DE00000407047C2F10002410021FA02F1C2F155
:100DF000200200FA02FC5FEA310040F1000053EAF1
:100E00004C0308BF20EADC70704792F0000F00F03E
:100E1000004C02BF400010F4000F013AF9D040EA44
:100E20000C0093F0000F01F0004C02BF490011F4D8
:100E3000000F013BF9D041EA0C018FE70CEAD153D6
:100E400092EA0C0F18BF93EA0C0F0AD030F0004C56
:100E500018BF31F0004CD8D180EA010000F000400A
:100E6000704790F0000F17BF90F0004F084691F0C8
:100E7000000F91F0004F14D092EA0C0F01D1420202
:100E80000FD193EA0C0F03D14B0218BF084608D1CB
:100E900080EA010000F0004040F0FE4040F4000015
:100EA000704740F0FE4040F4400070474FF0FF0CA8
:100EB0001CEAD0521EBF1CEAD15392EA0C0F93EAEF
:100EC0000C0F69D0A2EB030280EA010C49024FEA41
:100ED000402037D04FF0805343EA111143EA1013FA
:100EE0000CF000408B4238BF5B0042F17D024FF4B2
:100EF000000C8B4224BF5B1A40EA0C00B3EB510F8D
:100F000024BFA3EB510340EA5C00B3EB910F24BF75
:100F1000A3EB910340EA9C00B3EBD10F24BFA3EBFA
:100F2000D10340EADC001B0118BF5FEA1C1CE0D1C2
:100F3000FD2A3FF650AF8B4240EBC25008BF20F075
:100F4000010070470CF0004C4CEA50207F32C2BFC9
:100F5000D2F1FF0340EAC250704740F400004FF066
:100F60000003013A37E792F0000F00F0004C02BF97
:100F7000400010F4000F013AF9D040EA0C0093F061
:100F8000000F01F0004C02BF490011F4000F013BBB
:100F9000F9D041EA0C0195E70CEAD15392EA0C0F23
:100FA00008D142027FF47DAF93EA0C0F7FF470AF5B
:100FB000084676E793EA0C0F04D14B023FF44CAF9E
:100FC00008466EE730F0004C18BF31F0004CCAD133
:100FD00030F000427FF45CAF31F000437FF43CAF6F
:100FE0005FE700BF4FF0FF3C06E000BF4FF0010C91
:100FF00002E000BF4FF0010C4DF804CD4FEA400273
:101000004FEA41037FEA226C18BF7FEA236C11D0BC
:1010100001B052EA530C18BF90EA010F58BFB2EB6F
:10102000030088BFC81738BF6FEAE17018BF40F0EF
:10103000010070477FEA226C02D15FEA402C05D1A3
:101040007FEA236CE4D15FEA412CE1D05DF8040B28
:10105000704700BF844608466146FFE70FB5FFF7BB
:10106000C9FF002848BF10F1000F0FBD4DF808ED73
:10107000FFF7F4FF0CBF012000205DF808FB00BF64
:101080004DF808EDFFF7EAFF34BF012000205DF8BE
:1010900008FB00BF4DF808EDFFF7E0FF94BF01200B
:1010A00000205DF808FB00BF4DF808EDFFF7D2FF08
:1010B00094BF012000205DF808FB00BF4DF808ED4B
:1010C000FFF7C8FF34BF012000205DF808FB00BF18
:1010D00042000ED2B2F1FE4F0BD34FF09E03B3EBA2
:1010E000126209D44FEA002343F0004323FA02F0CE
:1010F00070474FF00000704712F1610F01D14202BA
:1011000002D14FF0FF3070474FF00000704700BF32
:1011100080B588B000AF07F1100300221A605A6052
:101120009A60DA60284B9B69274A43F02003936159
:10113000254B9B6903F02003FB60FB68224B9B69F6
:10114000214A43F0040393611F4B9B6903F004039E
:10115000BB60BB681C4B9B691B4A43F0080393614F
:10116000194B9B6903F008037B607B6800224FF2F8
:101170003361164801F03CFC00224FF4184114483A
:1011800001F036FC4FF233633B6101237B610023A6
:10119000BB610123FB6107F1100319460B4801F005
:1011A000A3FA4FF418433B6101237B610023BB6129
:1011B0000123FB6107F110031946054801F094FA79
:1011C00000BF2037BD4680BD00100240000C01402A
:1011D0000008014080B586B000AF01F041F800F092
:1011E00071F900F0B5F9FFF793FF00F095FF00F0FB
:1011F000B9FC4FF000037B614FF000033B614FF0FF
:101200000003FB604FF00003BB604FF000037B6006
:101210009F4800F0B9FC322001F084F89D4B1B7808
:10122000062B00F2338101A252F823F04912000884
:10123000DF1200082D13000893130008F9130008AB
:101240000B14000847140008012004F021FF786106
:1012500091497869FFF732FF0346002B03D0012044
:1012600000F03CFC14E08C497869FFF709FF034665
:10127000002B0AD089497869FFF720FF0346002B2D
:1012800003D0022000F02AFC02E0032000F026FC3C
:10129000834B1B88002B18D0824800F075FC804BD4
:1012A0001B881846FFF7F6FC0346184600F08AFC38
:1012B0007D4800F069FC7A4B1B88184600F0B0F9B5
:1012C0004FF4967001F02EF805E0784800F05CFCD1
:1012D000642001F027F86F4B04221A70D7E0704B9E
:1012E0001B88002B18D0724800F04EFC6C4B1B88FA
:1012F0001846FFF7CFFC0346184600F063FC6A4827
:1013000000F042FC664B1B88184600F09EF94FF433
:10131000967001F007F805E0644800F035FC6420A1
:1013200001F000F85B4B04221A70B0E0002004F0DA
:10133000AFFE386158493869FFF7C0FE0346002BFD
:1013400003D0012000F0CAFB14E053493869FFF7CD
:1013500097FE0346002B0AD050493869FFF7AEFECE
:101360000346002B03D0022000F0B8FB02E003206C
:1013700000F0B4FB4F4800F007FC4FF6FF7000F0A0
:1013800079F94FF4967000F0CDFF424B04221A70A9
:101390007DE0022004F07CFEF8603F49F868FFF72A
:1013A0008DFE0346002B03D0012000F097FB14E0D4
:1013B0003949F868FFF764FE0346002B0AD0374925
:1013C000F868FFF77BFE0346002B03D0022000F0F5
:1013D00085FB02E0032000F081FB374800F0D4FBDE
:1013E0004FF6FF7000F05AF94FF4967000F09AFF34
:1013F000284B04221A704AE0002000F06FFB00F036
:1014000061F92E4800F0C0FB41E0002004F040FEEE
:101410003861012004F03CFE7861294800F0B4FBFB
:10142000786900F0CFFB204800F0AEFB022004F00A
:101430002FFEF860FA683969786900F0A9F932205E
:1014400000F070FF23E0012004F022FE78611C48C8
:1014500000F09AFB786900F0B5FB134800F094FBAC
:10146000032004F015FEB860042004F011FE78603B
:10147000786900F045FA322000F054FF7968B868C6
:1014800000F0C4FA322000F04DFF00E000BFC5E6D6
:10149000608F0008000000200000F0410000A04123
:1014A000900200208C8F0008A88F0008AC8F0008E5
:1014B000C48F0008E48F0008F48F0008049000082F
:1014C0001090000880B590B000AF07F118032822F3
:1014D0000021184605F04DFC3B1D00221A605A60A1
:1014E0009A60DA601A610123BB614FF48033FB61BB
:1014F00000233B620123BB6202237B634FF48033F2
:10150000BB634FF4E013FB6307F11803184601F0C7
:1015100087FA0346002B01D000F0F8FB0F237B6015
:101520000223BB600023FB604FF480633B61002318
:101530007B613B1D0221184601F0F4FC0346002BA1
:1015400001D000F0E3FB00BF4037BD4680BD000086
:1015500080B500AF1449002004F052F9124901206F
:1015600004F04EF91149022004F04AF90F49032012
:1015700004F046F90C49042004F042F9002003F07D
:101580005FFE012003F05CFE00220121002003F039
:10159000F7FF00220021012003F0F2FF03F02CFEF0
:1015A00004F0E2FD00BF80BD3C020020F4010020F9
:1015B00080B582B000AF7860786804F021FB00BF8E
:1015C0000837BD4680BD80B582B000AF78607868CE
:1015D00004F0DCFA00BF0837BD4680BD80B500AF1F
:1015E0000E4B1B8801339AB20C4B1A800B4B1B8895
:1015F000092B11D9002004F061FD012004F05EFDEB
:10160000022004F05BFD032004F058FD042004F0E8
:1016100055FD024B00221A8000BF80BD84020020CD
:1016200080B582B000AF0346FB80FB881A460121DB
:10163000002003F0A5FFFB881A460121012003F0DA
:101640009FFF00BF0837BD4680BD80B582B000AFA8
:101650000346FB80FB881A460021002003F090FF20
:10166000FB881A460021012003F08AFF00BF0837DB
:10167000BD4680BD80B582B000AF0346FB80FB88CD
:101680001A460121002003F07BFF002201210120E6
:1016900003F076FF00BF0837BD4680BD80B582B03D
:1016A00000AF0346FB8000220121002003F068FF09
:1016B000FB881A460121012003F062FF00BF0837B2
:1016C000BD4680BD80B500AF002004F033F8012096
:1016D00004F030F800BF80BD80B582B000AF034693
:1016E0000A46FB801346BB80FB881946002003F0A6
:1016F000D7FFBB881946012003F0D2FF00BF08378F
:10170000BD4680BD80B584B000AF786039604FF0D1
:101710000003FB601B4B1B68002B20D0194B1B6880
:101720003A68D31A1846FEF75DFE4FF00002164BDA
:10173000FEF7FCFF02460B4610461946FFF7A4F9D8
:101740000346BB60114B1B6819467868FFF7F0F938
:101750000346B9681846FFF7A9FB0346FB600B4A2E
:101760007B681360074A3B681360F868FFF7B0FCBA
:1017700003469BB21846FFF78DFA0346184610370A
:10178000BD4680BD9402002000408F40980200209A
:1017900080B584B000AFF860B9607A604F49B8682E
:1017A000FFF76EFC0346002B0DD14C49F868FFF79C
:1017B00067FC0346002B06D148497868FFF760FCB8
:1017C0000346002B66D0F968B868FFF759FC03465A
:1017D000002B0FD07968B868FFF752FC0346002B46
:1017E00008D03F4800F0D0F93E4B1B881846FFF761
:1017F00055FF4EE0B968F868FFF742FC0346002B3E
:101800003ED07968F868FFF73BFC0346002B37D0E1
:10181000354800F0B9F9FFF755FF324B1B881846E1
:10182000FFF713FF322000F07DFD7968B868FFF7FD
:1018300027FC0346002B11D0294800F0A5F9294BBD
:101840001B881846FFF72AFF4FF4FA7000F06AFD74
:10185000244B1B881846FFF7E3FE1AE0234800F0EC
:1018600093F9204B1B881846FFF704FF4FF4FA70DA
:1018700000F058FD1B4B1B881846FFF7D1FE08E00F
:101880001A4800F081F9174B1B881846FFF7F2FE43
:101890001FE01EE000F03CFD0346154A1360144BA8
:1018A0001B681946F868FFF72DFF0346114A1360BD
:1018B0000C4B1B881846FFF7B3FE0F4800F064F985
:1018C0000C4B1B68184600F07DF90C4800F05CF9E1
:1018D00000BF00BF1037BD4680BD00BF0000A04163
:1018E000F48F00089002002024900008E48F000884
:1018F000880200208C0200208C8F0008A88F00082E
:1019000080B582B000AF786034497868FFF7B8FBE3
:101910000346002B16D032497868FFF7CFFB034609
:10192000002B0FD040F2FF7140F2FF70FFF7D4FEA2
:101930002C4800F029F92C4800F044F92B4800F01D
:1019400023F947E026497868FFF79AFB0346002B06
:1019500014D027497868FFF7B1FB0346002B0DD060
:10196000FA21FA20FFF7B8FE1E4800F00DF92148D1
:1019700000F028F91D4800F007F92BE01C497868B1
:10198000FFF77EFB0346002B05D0FFF79BFE1A48AE
:1019900000F0FAF81EE000F0BBFC0346174A1360A3
:1019A000164B1B6819467868FFF7ACFE0346144ACD
:1019B0001360144B1B881846FFF732FE124800F0E4
:1019C000E3F80F4B1B68184600F0FCF8074800F0DE
:1019D000DBF8FFE700BF0837BD4680BD00002042AE
:1019E0000000F0413890000800E0FF44A88F000894
:1019F0000000A04100007A43049000088802002003
:101A00008C020020900200208C8F000880B582B0EC
:101A100000AF786039602A497868FFF74FFB0346CA
:101A2000002B10D027497868FFF72AFB0346002BCC
:101A300009D0022000F052F8234800F0A5F823480E
:101A400000F0A2F837E01E493868FFF737FB03467D
:101A5000002B10D01B493868FFF712FB0346002B00
:101A600009D0022000F03AF8194800F08DF8174824
:101A700000F08AF81FE012497868FFF701FB03467F
:101A8000002B06D0032000F029F8124800F07CF863
:101A900011E00B493868FFF7F3FA0346002B06D034
:101AA000032000F01BF80C4800F06EF803E0012062
:101AB00000F014F8FFE700BF0837BD4680BD00BF47
:101AC0000000A0410000F04154900008749000080C
:101AD00094900008B0900008CC90000880B582B0C7
:101AE00000AF0346FB71FB79002B0BD103F09CFB8D
:101AF000002004F091FB012004F08EFB022004F092
:101B00008BFB2BE0FB79012B0BD103F08DFB00202D
:101B100004F044FB012004F07FFB022004F07CFB76
:101B20001CE0FB79022B0BD103F07EFB002004F0BC
:101B300073FB012004F032FB022004F06DFB0DE08A
:101B4000FB79032B0AD103F063FB002004F064FB54
:101B5000012004F061FB022004F020FB00BF0837E5
:101B6000BD4680BD80B500AF01220549054802F0A1
:101B7000EAFE0346002B01D000F0C8F800BF80BD8C
:101B800086020020A002002080B584B000AF7860FB
:101B90000023FB8102E0FB890133FB81FB897A682A
:101BA00013441B78002BF6D1FA894FF0FF33796884
:101BB000034802F036FE00BF1037BD4680BD00BFAF
:101BC000A002002080B588B000AF78607868FEF78A
:101BD0002BFC02460B4607F10C00064905F066F89F
:101BE00007F10C031846FFF7CFFF00BF2037BD46B3
:101BF00080BD00BFE890000880B582B000AF78607B
:101C00007B681B683C4A934271D101223B493C48A6
:101C100002F099FE394B1B78423B172B66D801A284
:101C200052F823F08D1C0008ED1C0008B51C0008BC
:101C3000ED1C0008851C0008ED1C0008ED1C0008C8
:101C4000ED1C0008ED1C0008ED1C00089D1C0008A0
:101C5000ED1C0008ED1C0008AD1C0008ED1C000880
:101C6000BD1C0008951C0008A51C0008ED1C000800
:101C7000E31C0008ED1C0008C51C0008CF1C000870
:101C8000D91C00081F4B00221A7030E01D4B0122A6
:101C90001A702CE01B4B02221A7028E0194B032209
:101CA0001A7024E0174B04221A7020E0154B05220D
:101CB0001A701CE0134B06221A7018E0124BFA221D
:101CC0001A8014E0104B40F2FF121A800FE00E4B06
:101CD00040F6FF221A800AE00B4B41F211121A80E3
:101CE00005E0094B4FF6FF721A8000E000BF00BF0D
:101CF0000837BD4680BD00BF003801408602002085
:101D0000A0020020000000209002002080B400AF5C
:101D100072B600BFFEE7000080B485B000AF154B7F
:101D20009B69144A43F001039361124B9B6903F0D2
:101D30000103BB60BB680F4BDB690E4A43F0805365
:101D4000D3610C4BDB6903F080537B607B680A4BEB
:101D50005B68FB60FB6823F0E063FB60FB6843F0BB
:101D60008063FB60044AFB68536000BF1437BD46C4
:101D700080BC7047001002400000014080B400AFFA
:101D8000FEE780B400AFFEE780B400AFFEE780B4AA
:101D900000AFFEE780B400AFFEE780B400AF00BF45
:101DA000BD4680BC704780B400AF00BFBD4680BC5C
:101DB000704780B400AF00BFBD4680BC704780B59F
:101DC00000AF00F093FAFFF709FC00BF80BD0000F0
:101DD00080B500AF024801F037FD00BF80BD00BFF5
:101DE000F401002080B500AF024801F02DFD00BFD6
:101DF00080BD00BF3C02002080B500AF024802F069
:101E0000D3FD00BF80BD00BFA002002080B400AFA2
:101E100001231846BD4680BC704780B582B000AF34
:101E20007860396004F0F8FF034616221A604FF01C
:101E3000FF3318460837BD4680BD80B582B000AF7D
:101E400078604FF0FF317868FFF7E7FFFEE780B575
:101E500086B000AFF860B9607A6000237B610AE069
:101E6000AFF300800146BB685A1CBA60CAB21A7050
:101E70007B6901337B617A697B689A42F0DB7B681E
:101E800018461837BD4680BD80B586B000AFF860F3
:101E9000B9607A6000237B6109E0BB685A1CBA60B4
:101EA0001B781846AFF300807B6901337B617A6948
:101EB0007B689A42F1DB7B6818461837BD4680BDC7
:101EC00080B483B000AF78604FF0FF3318460C3712
:101ED000BD4680BC704780B483B000AF7860396085
:101EE0003B684FF400525A60002318460C37BD4639
:101EF00080BC704780B483B000AF7860012318467F
:101F00000C37BD4680BC704780B485B000AFF86028
:101F1000B9607A60002318461437BD4680BC70470C
:101F200080B586B000AF7860144A154BD31A7B6138
:101F30007B693B61134B1B68002B02D1114B124A8A
:101F40001A60104B1A687B6813443A699A4207D2A8
:101F500004F062FF03460C221A604FF0FF3309E0E1
:101F6000084B1B68FB60074B1A687B681344054AE3
:101F70001360FB6818461837BD4680BD005000202E
:101F8000000400009C020020E804002080B400AFA0
:101F900000BFBD4680BC704780B58CB000AF786094
:101FA00007F1200300221A605A609A60DA607B68A9
:101FB0001B68B3F1804F0CD13A4BDB69394A43F0CF
:101FC0000103D361374BDB6903F00103FB61FB695C
:101FD00063E07B681B68344A93422CD1314BDB6948
:101FE000304A43F00203D3612E4BDB6903F0020356
:101FF000BB61BB692B4B9B692A4A43F00403936185
:10200000284B9B6903F004037B617B69C0233B621F
:1020100000237B620023BB6207F12003194623489B
:1020200000F062FB002200211D2000F076FA1D2046
:1020300000F08FFA31E07B681B681D4A93422CD177
:10204000184BDB69174A43F00403D361154BDB6976
:1020500003F004033B613B69124B9B69114A43F057
:10206000080393610F4B9B6903F00803FB60FB6857
:102070004FF4E0733B6200237B620023BB6207F1F5
:10208000200319460B4800F02FFB002200211E20E0
:1020900000F043FA1E2000F05CFA00BF3037BD4666
:1020A00080BD00BF00100240000400400008014055
:1020B00000080040000C014080B588B000AF786097
:1020C00007F1100300221A605A609A60DA607B6898
:1020D0001B68B3F1804F17D10D4B9B690C4A43F03D
:1020E000040393610A4B9B6903F00403FB60FB68E4
:1020F00006233B6102237B610223FB6107F110038E
:102100001946044800F0F0FA00BF2037BD4680BDF4
:10211000001002400008014080B500AF114B124A88
:102120001A60104B4FF416525A600E4B00229A6000
:102130000C4B0022DA600B4B00221A61094B0C2277
:102140005A61084B00229A61064B0022DA61054869
:1021500002F01AFB0346002B01D0FFF7D7FD00BFAA
:1021600080BD00BFA00200200038014080B588B0CB
:1021700000AF786007F1100300221A605A609A607D
:10218000DA607B681B68204A934239D11F4B9B69F8
:102190001E4A43F4804393611C4B9B6903F48043C4
:1021A000FB60FB68194B9B69184A43F00403936179
:1021B000164B9B6903F00403BB60BB684FF40073CC
:1021C0003B6102237B610323FB6107F11003194686
:1021D0000F4800F089FA4FF480633B6100237B6174
:1021E0000023BB6107F110031946094800F07CFA8F
:1021F00000220021252000F090F9252000F0A9F907
:1022000000BF2037BD4680BD0038014000100240AD
:10221000000801400C480D490D4A002302E0D45843
:10222000C4500433C4188C42F9D30A4A0A4C002320
:1022300001E013600432A242FBD3FFF7A7FE04F0D3
:10224000F1FDFEF7C7FF704700000020D801002015
:1022500034950008D8010020E8040020FEE70000C3
:1022600080B500AF084B1B68074A43F010031360AA
:10227000032000F047F90F2000F008F8FFF74CFDAD
:102280000023184680BD00BF0020024080B582B008
:1022900000AF7860124B1A68124B1B7819464FF446
:1022A0007A73B3FBF1F3B2FBF3F3184600F05FF976
:1022B0000346002B01D001230EE07B680F2B0AD8C8
:1022C000002279684FF0FF3000F027F9064A7B685A
:1022D0001360002300E0012318460837BD4680BD87
:1022E000040000200C0000200800002080B400AF93
:1022F000054B1B781A46054B1B681344034A1360B1
:1023000000BFBD4680BC70470C000020E4020020E6
:1023100080B400AF024B1B681846BD4680BC7047B6
:10232000E402002080B584B000AF7860FFF7F0FFD2
:10233000B8607B68FB60FB68B3F1FF3F05D00A4BD8
:102340001B781A46FB681344FB6000BFFFF7E0FFF1
:102350000246BB68D31AFA689A42F7D800BF00BF9A
:102360001037BD4680BD00BF0C00002080B485B092
:1023700000AF78607B6803F00703FB600C4BDB6801
:10238000BB60BA684FF6FF031340BB60FB681A02DC
:10239000BB68134343F0BF6343F40033BB60044A9C
:1023A000BB68D36000BF1437BD4680BC704700BF18
:1023B00000ED00E080B400AF044BDB681B0A03F0C3
:1023C00007031846BD4680BC704700BF00ED00E023
:1023D00080B483B000AF0346FB7197F90730002B40
:1023E0000BDBFB7903F01F02064997F907305B0905
:1023F000012000FA02F241F8232000BF0C37BD464D
:1024000080BC704700E100E080B483B000AF0346B9
:102410003960FB7197F90730002B0ADB3B68DAB2B1
:102420000C4997F907301201D2B20B4483F800230C
:102430000AE03B68DAB20849FB7903F00F03043B7A
:102440001201D2B20B441A7600BF0C37BD4680BCD5
:10245000704700BF00E100E000ED00E080B489B00B
:1024600000AFF860B9607A60FB6803F00703FB61B6
:10247000FB69C3F10703042B28BF0423BB61FB697D
:102480000433062B02D9FB69033B00E000237B6188
:102490004FF0FF32BB6902FA03F3DA43BB681A401C
:1024A0007B699A404FF0FF317B6901FA03F3D9430E
:1024B0007B680B40134318462437BD4680BC7047E9
:1024C00080B582B000AF78607B68013BB3F1807F5C
:1024D00001D301230FE00A4A7B68013B53600F21BF
:1024E0004FF0FF30FFF790FF054B00229A60044B3E
:1024F00007221A60002318460837BD4680BD00BF7A
:1025000010E000E080B582B000AF78607868FFF737
:102510002DFF00BF0837BD4680BD80B586B000AF37
:102520000346B9607A60FB7300237B61FFF742FFCB
:1025300078617A68B9687869FFF790FF024697F981
:102540000F3011461846FFF75FFF00BF1837BD4632
:1025500080BD80B582B000AF0346FB7197F90730AC
:102560001846FFF735FF00BF0837BD4680BD80B570
:1025700082B000AF78607868FFF7A2FF0346184684
:102580000837BD4680BD80B485B000AF78600023B9
:10259000FB737B6893F82130022B08D07B68042200
:1025A0009A637B68002283F82020012320E07B6867
:1025B0001B681A687B681B6822F00E021A607B6831
:1025C0001B681A687B681B6822F001021A607B682E
:1025D0001A6C7B68DB6B012101FA02F25A607B689E
:1025E000012283F821207B68002283F82020FB7BD6
:1025F00018461437BD4680BC7047000080B584B0D3
:1026000000AF78600023FB737B6893F82130022BC6
:1026100005D07B6804229A630123FB7351E07B6839
:102620001B681A687B681B6822F00E021A607B68C0
:102630001B681A687B681B6822F001021A607B68BD
:102640001B68224A934229D07B681B68204A934228
:1026500022D07B681B681F4A93421AD07B681B6894
:102660001D4A934212D07B681B681C4A93420AD0D1
:102670007B681B681A4A934202D14FF480130EE024
:102680004FF080730BE04FF4803308E04FF4805339
:1026900005E04FF4807302E0102300E00123114AAB
:1026A00053607B68012283F821207B68002283F835
:1026B00020207B685B6B002B03D07B685B6B7868AA
:1026C0009847FB7B18461037BD4680BD0800024086
:1026D0001C0002403000024044000240580002400A
:1026E0006C0002400000024080B48BB000AF786004
:1026F000396000237B6200233B6269E101227B6A2F
:1027000002FA03F3FB613B681B68FA691340BB6183
:10271000BA69FB699A4240F058813B685B689A4A03
:1027200093425ED0984A934275D8984A934258D0C3
:10273000964A93426FD8964A934252D0944A934213
:1027400069D8944A93424CD0924A934263D8924AB1
:10275000934246D0904A93425DD8122B2AD8122B2E
:1027600059D801A252F823F0E3270008BD2700083A
:10277000CF2700081128000817280008172800088C
:10278000172800081728000817280008172800082D
:10279000172800081728000817280008172800081D
:1027A000172800081728000817280008C527000860
:1027B000D9270008794A934213D02CE03B68DB68A4
:1027C0003B6229E03B68DB6804333B6224E03B6802
:1027D000DB6808333B621FE03B68DB680C333B621D
:1027E0001AE03B689B68002B02D104233B6213E094
:1027F0003B689B68012B05D108233B627B68FA6923
:102800001A6109E008233B627B68FA695A6103E0B8
:1028100000233B6200E000BFBB69FF2B01D87B684F
:1028200001E07B6804337B61BB69FF2B02D87B6AC4
:102830009B0002E07B6A083B9B003B617B691A6856
:102840000F213B6901FA03F3DB431A40396A3B6904
:1028500001FA03F31A437B691A603B685B6803F073
:102860008053002B00F0B1804D4B9B694C4A43F0E4
:10287000010393614A4B9B6903F00103BB60BB6892
:10288000484A7B6A9B08023352F82330FB607B6A1C
:1028900003F003039B000F2202FA03F3DB43FA6801
:1028A0001340FB607B68404A934213D07B683F4AE9
:1028B00093420DD07B683E4A934207D07B683D4AE5
:1028C000934201D1032306E0042304E0022302E043
:1028D000012300E000237A6A02F003029200934091
:1028E000FA681343FB602F497B6A9B080233FA683E
:1028F00041F823203B685B6803F48033002B06D04B
:102900002D4B1A682C49BB6913430B6006E02A4B18
:102910001A68BB69DB43284913400B603B685B685E
:1029200003F40033002B06D0234B5A682249BB69BD
:1029300013434B6006E0204B5A68BB69DB431E49DA
:1029400013404B603B685B6803F48013002B06D098
:10295000194B9A681849BB6913438B6006E0164B04
:102960009A68BB69DB43144913408B603B685B6822
:1029700003F40013002B21D00F4BDA680E49BB691A
:102980001343CB6021E000BF000032100000311083
:102990000000221000002110000012100000111091
:1029A000001002400000014000080140000C0140FE
:1029B0000010014000140140000401400B4BDA6894
:1029C000BB69DB4309491340CB607B6A01337B62FF
:1029D0003B681A687B6A22FA03F3002B7FF48EAE01
:1029E00000BF00BF2C37BD4680BC704700040140CB
:1029F00080B483B000AF78600B467B8013467B7059
:102A00007B78002B03D07A887B681A6103E07B888F
:102A10001A047B681A6100BF0C37BD4680BC704742
:102A200080B586B000AF78607B68002B01D10123B0
:102A300072E27B681B6803F00103002B00F08780C3
:102A4000924B5B6803F00C03042B0CD08F4B5B683C
:102A500003F00C03082B12D18C4B5B6803F480331A
:102A6000B3F5803F0BD1894B1B6803F40033002B77
:102A70006CD07B685B68002B68D101234CE27B68DB
:102A80005B68B3F5803F06D1804B1B687F4A43F4F7
:102A9000803313602EE07B685B68002B0CD17B4B8E
:102AA0001B687A4A23F480331360784B1B68774A9B
:102AB00023F4802313601DE07B685B68B3F5A02FCF
:102AC0000CD1724B1B68714A43F4802313606F4B27
:102AD0001B686E4A43F4803313600BE06B4B1B683A
:102AE0006A4A23F480331360684B1B68674A23F4F7
:102AF000802313607B685B68002B13D0FFF708FC12
:102B0000386108E0FFF704FC02463B69D31A642BE6
:102B100001D9032300E25D4B1B6803F40033002B53
:102B2000F0D014E0FFF7F4FB386108E0FFF7F0FBAA
:102B300002463B69D31A642B01D90323ECE1534BC2
:102B40001B6803F40033002BF0D100E000BF7B686A
:102B50001B6803F00203002B63D04C4B5B6803F04F
:102B60000C03002B0BD0494B5B6803F00C03082BC4
:102B70001CD1464B5B6803F48033002B16D1434BCA
:102B80001B6803F00203002B05D07B681B69012B37
:102B900001D00123C0E13D4B1B6823F0F8027B68A4
:102BA0005B69DB00394913430B603AE07B681B69C2
:102BB000002B20D0364B01221A60FFF7A9FB3861A9
:102BC00008E0FFF7A5FB02463B69D31A022B01D9A7
:102BD0000323A1E12D4B1B6803F00203002BF0D06F
:102BE0002A4B1B6823F0F8027B685B69DB002749EE
:102BF00013430B6015E0264B00221A60FFF788FB99
:102C0000386108E0FFF784FB02463B69D31A022BC8
:102C100001D9032380E11D4B1B6803F00203002B45
:102C2000F0D17B681B6803F00803002B3AD07B6867
:102C30009B69002B19D0174B01221A60FFF768FB24
:102C4000386108E0FFF764FB02463B69D31A022BA8
:102C500001D9032360E10D4B5B6A03F00203002BF3
:102C6000F0D0012000F0D8FA1CE00A4B00221A60D4
:102C7000FFF74EFB38610FE0FFF74AFB02463B6966
:102C8000D31A022B08D9032346E100BF00100240EB
:102C90000000424280044242924B5B6A03F002030E
:102CA000002BE9D17B681B6803F00403002B00F0C4
:102CB000A6800023FB758B4BDB6903F08053002B50
:102CC0000DD1884BDB69874A43F08053D361854B34
:102CD000DB6903F08053BB60BB680123FB75824B4B
:102CE0001B6803F48073002B18D17F4B1B687E4A4E
:102CF00043F480731360FFF70BFB386108E0FFF7C4
:102D000007FB02463B69D31A642B01D9032303E175
:102D1000754B1B6803F48073002BF0D07B68DB6875
:102D2000012B06D16F4B1B6A6E4A43F001031362FD
:102D30002DE07B68DB68002B0CD16A4B1B6A694A6B
:102D400023F001031362674B1B6A664A23F00403F6
:102D500013621CE07B68DB68052B0CD1614B1B6A9E
:102D6000604A43F0040313625E4B1B6A5D4A43F002
:102D7000010313620BE05B4B1B6A5A4A23F0010309
:102D80001362584B1B6A574A23F0040313627B6893
:102D9000DB68002B15D0FFF7BBFA38610AE0FFF7BC
:102DA000B7FA02463B69D31A41F28832934201D9FD
:102DB0000323B1E04B4B1B6A03F00203002BEED060
:102DC00014E0FFF7A5FA38610AE0FFF7A1FA02461E
:102DD0003B69D31A41F28832934201D903239BE025
:102DE000404B1B6A03F00203002BEED1FB7D012B4D
:102DF00005D13C4BDB693B4A23F08053D3617B68B0
:102E0000DB69002B00F08780364B5B6803F00C0316
:102E1000082B61D07B68DB69022B46D1334B002243
:102E20001A60FFF775FA386108E0FFF771FA024699
:102E30003B69D31A022B01D903236DE0294B1B6890
:102E400003F00073002BF0D17B681B6AB3F5803F61
:102E500008D1244B5B6823F400327B689B682149CE
:102E600013434B601F4B5B6823F474127B68196A31
:102E70007B685B6A0B431B4913434B601B4B01226E
:102E80001A60FFF745FA386108E0FFF741FA024699
:102E90003B69D31A022B01D903233DE0114B1B6878
:102EA00003F00073002BF0D035E0104B00221A60C5
:102EB000FFF72EFA386108E0FFF72AFA02463B696D
:102EC000D31A022B01D9032326E0064B1B6803F01B
:102ED0000073002BF0D11EE07B68DB69012B07D16A
:102EE000012319E0001002400070004060004242DF
:102EF0000B4B5B68FB60FB6803F480327B681B6AEA
:102F00009A4206D1FB6803F470127B685B6A9A42AE
:102F100001D0012300E0002318461837BD4680BDCC
:102F20000010024080B584B000AF786039607B68E3
:102F3000002B01D10123D0E06A4B1B6803F007038B
:102F40003A689A4210D9674B1B6823F0070265491B
:102F50003B6813430B60634B1B6803F007033A683D
:102F60009A4201D00123B8E07B681B6803F002039A
:102F7000002B20D07B681B6803F00403002B05D0D6
:102F8000594B5B68584A43F4E06353607B681B68A5
:102F900003F00803002B05D0534B5B68524A43F4FF
:102FA00060535360504B5B6823F0F0027B689B6872
:102FB0004D4913434B607B681B6803F00103002BF2
:102FC00040D07B685B68012B07D1474B1B6803F43B
:102FD0000033002B15D101237FE07B685B68022B57
:102FE00007D1414B1B6803F00073002B09D101236B
:102FF00073E03D4B1B6803F00203002B01D101235A
:103000006BE0394B5B6823F003027B685B683649F1
:1030100013434B60FFF77CF9F8600AE0FFF778F99B
:103020000246FB68D31A41F28832934201D9032346
:1030300053E02D4B5B6803F00C027B685B689B00E0
:103040009A42EBD1274B1B6803F007033A689A4278
:1030500010D2244B1B6823F0070222493B6813431C
:103060000B60204B1B6803F007033A689A4201D0BB
:10307000012332E07B681B6803F00403002B08D0B7
:10308000194B5B6823F4E0627B68DB6816491343E5
:103090004B607B681B6803F00803002B09D0124BC0
:1030A0005B6823F460527B681B69DB000E491343A5
:1030B0004B6000F021F802460B4B5B681B0903F0E4
:1030C0000F030A49CB5C22FA03F3094A1360094B48
:1030D0001B681846FFF7DAF8002318461037BD467C
:1030E00080BD00BF00200240001002400091000897
:1030F000040000200800002090B48AB000AF294BE3
:103100003C1D0FCB84E80F0040F201233B800023DD
:10311000FB610023BB6100237B6200237B610023F2
:103120003B62214B5B68FB61FB6903F00C03042BE2
:1031300002D0082B03D02BE01C4B3B622BE0FB6939
:103140009B0C03F00F0328333B4413F8243C7B61B2
:10315000FB6903F48033002B12D0134B5B685B0CCC
:1031600003F0010328333B4413F8283CBB617B691F
:103170000E4A03FB02F2BB69B2FBF3F37B6204E08D
:103180007B690B4A02FB03F37B627B6A3B6202E0D2
:10319000064B3B6200BF3B6A18462837BD4690BCD1
:1031A000704700BFF09000080010024000127A0043
:1031B00000093D0080B400AF024B1B681846BD46B5
:1031C00080BC70470400002080B500AFFFF7F2FF1D
:1031D0000246054B5B681B0A03F007030349CB5CFF
:1031E00022FA03F3184680BD001002401091000837
:1031F00080B500AFFFF7DEFF0246054B5B68DB0AD8
:1032000003F007030349CB5C22FA03F3184680BDA1
:10321000001002401091000880B485B000AF7860C3
:103220000A4B1B680A4AA2FB03235B0A7A6802FB6B
:1032300003F3FB6000BFFB685A1EFA60002BF9D154
:1032400000BF00BF1437BD4680BC7047040000209B
:10325000D34D621080B582B000AF78607B68002BE0
:1032600001D1012341E07B6893F83D30DBB2002BB4
:1032700006D17B68002283F83C207868FEF78CFE3C
:103280007B68022283F83D207B681A687B680433E0
:103290001946104600F056FE7B68012283F846204E
:1032A0007B68012283F83E207B68012283F83F205F
:1032B0007B68012283F840207B68012283F841204B
:1032C0007B68012283F842207B68012283F8432037
:1032D0007B68012283F844207B68012283F8452023
:1032E0007B68012283F83D20002318460837BD463D
:1032F00080BD000080B485B000AF78607B6893F833
:103300003D30DBB2012B01D001233AE07B68022281
:1033100083F83D207B681B68DA687B681B6842F095
:103320000102DA607B681B68184A93420ED07B6802
:103330001B68B3F1804F09D07B681B68144A934225
:1033400004D07B681B68134A934211D17B681B68C9
:103350009B6803F00703FB60FB68062B10D07B68BB
:103360001B681A687B681B6842F001021A6007E05C
:103370007B681B681A687B681B6842F001021A6050
:10338000002318461437BD4680BC7047002C01400E
:10339000000400400008004080B582B000AF7860B3
:1033A0007B68002B01D1012341E07B6893F83D301D
:1033B000DBB2002B06D17B68002283F83C207868C2
:1033C00000F039F87B68022283F83D207B681A6898
:1033D0007B6804331946104600F0B4FD7B68012277
:1033E00083F846207B68012283F83E207B68012217
:1033F00083F83F207B68012283F840207B6801220C
:1034000083F841207B68012283F842207B680122F7
:1034100083F843207B68012283F844207B680122E3
:1034200083F845207B68012283F83D20002318465D
:103430000837BD4680BD80B483B000AF786000BF60
:103440000C37BD4680BC704780B584B000AF786053
:1034500039603B68002B09D17B6893F83E30DBB2C2
:10346000012B14BF01230023DBB222E03B68042BB5
:1034700009D17B6893F83F30DBB2012B14BF0123E5
:103480000023DBB215E03B68082B09D17B6893F879
:103490004030DBB2012B14BF01230023DBB208E074
:1034A0007B6893F84130DBB2012B14BF012300236A
:1034B000DBB2002B01D001235EE03B68002B04D17E
:1034C0007B68022283F83E2013E03B68042B04D182
:1034D0007B68022283F83F200BE03B68082B04D175
:1034E0007B68022283F8402003E07B68022283F895
:1034F00041207B681B6801223968184601F0AFF84B
:103500007B681B681E4A934207D17B681B685A6C14
:103510007B681B6842F400425A647B681B68184A47
:1035200093420ED07B681B68B3F1804F09D07B6853
:103530001B68144A934204D07B681B68124A93426A
:1035400011D17B681B689B6803F00703FB60FB6875
:10355000062B10D07B681B681A687B681B6842F0DA
:1035600001021A6007E07B681B681A687B681B68A9
:1035700042F001021A60002318461037BD4680BD94
:10358000002C0140000400400008004080B582B0DB
:1035900000AF78607B68002B01D1012341E07B689C
:1035A00093F83D30DBB2002B06D17B68002283F814
:1035B0003C20786800F039F87B68022283F83D20CF
:1035C0007B681A687B6804331946104600F0BAFC21
:1035D0007B68012283F846207B68012283F83E2025
:1035E0007B68012283F83F207B68012283F840201A
:1035F0007B68012283F841207B68012283F8422006
:103600007B68012283F843207B68012283F84420F1
:103610007B68012283F845207B68012283F83D20E6
:10362000002318460837BD4680BD80B483B000AF84
:10363000786000BF0C37BD4680BC704780B584B051
:1036400000AF786039603B68002B04D17B6893F849
:103650003E30DBB213E03B68042B04D17B6893F867
:103660003F30DBB20BE03B68082B04D17B6893F85A
:103670004030DBB203E07B6893F84130DBB2FB7390
:103680003B68002B04D17B6893F84230DBB213E037
:103690003B68042B04D17B6893F84330DBB20BE02A
:1036A0003B68082B04D17B6893F84430DBB203E01D
:1036B0007B6893F84530DBB2BB73FB7B012B02D1F7
:1036C000BB7B012B01D00123B3E03B68002B04D16D
:1036D0007B68022283F83E2013E03B68042B04D170
:1036E0007B68022283F83F200BE03B68082B04D163
:1036F0007B68022283F8402003E07B68022283F883
:1037000041203B68002B04D17B68022283F84220D1
:1037100013E03B68042B04D17B68022283F843202A
:103720000BE03B68082B04D17B68022283F844201D
:1037300003E07B68022283F845203B680C2B41D8CC
:1037400001A252F823F000BF7D370008C5370008FA
:10375000C5370008C53700088F370008C53700088F
:10376000C5370008C5370008A1370008C53700086D
:10377000C5370008C5370008B33700087B681B68E9
:10378000DA687B681B6842F00202DA601BE07B6843
:103790001B68DA687B681B6842F00402DA6012E09A
:1037A0007B681B68DA687B681B6842F00802DA6095
:1037B00009E07B681B68DA687B681B6842F01002CE
:1037C000DA6000E000BF7B681B6801223968184698
:1037D00000F045FF7B681B68184A93420ED07B6857
:1037E0001B68B3F1804F09D07B681B68144A934271
:1037F00004D07B681B68134A934211D17B681B6815
:103800009B6803F00703BB60BB68062B10D07B6886
:103810001B681A687B681B6842F001021A6007E0A7
:103820007B681B681A687B681B6842F001021A609B
:10383000002318461037BD4680BD00BF002C014054
:10384000000400400008004080B582B000AF7860FE
:103850007B681B681B6903F00203022B22D17B6883
:103860001B68DB6803F00203022B1BD17B681B681B
:103870006FF002021A617B6801221A777B681B686D
:103880009B6903F00303002B03D07868FDF790FEDB
:1038900005E0786800F03AFB786800F040FB7B6850
:1038A00000221A777B681B681B6903F00403042B52
:1038B00022D17B681B68DB6803F00403042B1BD157
:1038C0007B681B686FF004021A617B6802221A771A
:1038D0007B681B689B6903F44073002B03D07868F6
:1038E000FDF766FE05E0786800F010FB786800F0F0
:1038F00016FB7B6800221A777B681B681B6903F044
:103900000803082B22D17B681B68DB6803F00803DF
:10391000082B1BD17B681B686FF008021A617B685B
:1039200004221A777B681B68DB6903F00303002B12
:1039300003D07868FDF73CFE05E0786800F0E6FA11
:10394000786800F0ECFA7B6800221A777B681B68C5
:103950001B6903F01003102B22D17B681B68DB6806
:1039600003F01003102B1BD17B681B686FF0100253
:103970001A617B6808221A777B681B68DB6903F48D
:103980004073002B03D07868FDF712FE05E07868DD
:1039900000F0BCFA786800F0C2FA7B6800221A775F
:1039A0007B681B681B6903F00103012B0ED17B6848
:1039B0001B68DB6803F00103012B07D17B681B68E0
:1039C0006FF001021A617868FDF7FDFD7B681B68E6
:1039D0001B6903F08003802B0ED17B681B68DB68BA
:1039E00003F08003802B07D17B681B686FF0800297
:1039F0001A61786800F0BFFE7B681B681B6903F0E2
:103A00004003402B0ED17B681B68DB6803F040034A
:103A1000402B07D17B681B686FF040021A61786801
:103A200000F086FA7B681B681B6903F02003202BDB
:103A30000ED17B681B68DB6803F02003202B07D1C5
:103A40007B681B686FF020021A61786800F08AFEBC
:103A500000BF0837BD4680BD80B584B000AFF860B8
:103A6000B9607A60FB6893F83C30012B01D10223E6
:103A700082E0FB68012283F83C207B68002B1BD18D
:103A8000FB681868BB681968BB685A68BB68DB6864
:103A900000F042FCFB681B689A69FB681B6822F017
:103AA0000C029A61FB681B689969BB689A68FB689D
:103AB0001B680A439A615AE07B68042B1CD1FB689F
:103AC0001868BB681968BB685A68BB68DB6800F097
:103AD000ABFCFB681B689A69FB681B6822F44062B8
:103AE0009A61FB681B689969BB689B681A02FB684E
:103AF0001B680A439A613AE07B68082B1BD1FB687C
:103B00001868BB681968BB685A68BB68DB6800F056
:103B1000F6FCFB681B68DA69FB681B6822F00C0284
:103B2000DA61FB681B68D969BB689A68FB681B6827
:103B30000A43DA611BE0FB681868BB681968BB6858
:103B40005A68BB68DB6800F015FDFB681B68DA6922
:103B5000FB681B6822F44062DA61FB681B68D96964
:103B6000BB689B681A02FB681B680A43DA61FB6842
:103B7000002283F83C20002318461037BD4680BD44
:103B800080B584B000AFF860B9607A60FB6893F8E4
:103B90003C30012B01D10223ACE0FB68012283F809
:103BA0003C207B680C2B00F29F8001A252F823F08E
:103BB000E53B0008E93C0008E93C0008E93C000856
:103BC000253C0008E93C0008E93C0008E93C000805
:103BD000673C0008E93C0008E93C0008E93C0008B3
:103BE000A73C0008FB681B68B968184600F00CFA8F
:103BF000FB681B689A69FB681B6842F008029A61BF
:103C0000FB681B689A69FB681B6822F004029A61D2
:103C1000FB681B689969BB681A69FB681B680A43E3
:103C20009A6162E0FB681B68B968184600F052FAB6
:103C3000FB681B689A69FB681B6842F400629A6122
:103C4000FB681B689A69FB681B6822F480629A61B2
:103C5000FB681B689969BB681B691A02FB681B68D3
:103C60000A439A6141E0FB681B68B968184600F096
:103C70009BFAFB681B68DA69FB681B6842F0080264
:103C8000DA61FB681B68DA69FB681B6822F00402D2
:103C9000DA61FB681B68D969BB681A69FB681B6835
:103CA0000A43DA6121E0FB681B68B968184600F036
:103CB000E5FAFB681B68DA69FB681B6842F400627E
:103CC000DA61FB681B68DA69FB681B6822F48062B2
:103CD000DA61FB681B68D969BB681B691A02FB685B
:103CE0001B680A43DA6100E000BFFB68002283F82A
:103CF0003C20002318461037BD4680BD80B584B0F7
:103D000000AF786039607B6893F83C30012B01D1BB
:103D10000223B3E07B68012283F83C207B68022207
:103D200083F83D207B681B689B68FB60FB6823F081
:103D30007703FB60FB6823F47F43FB607B681B68B1
:103D4000FA689A603B681B68B3F5005F3ED0B3F534
:103D5000005F00F28780B3F5805F00F08580B3F5E7
:103D6000805F7FD8702B1AD0702B7BD8602B50D0FF
:103D7000602B77D8502B3CD0502B73D8402B58D089
:103D8000402B6FD8302B64D0302B6BD8202B60D0D9
:103D9000202B67D8002B5CD0102B5AD062E07B68B8
:103DA00018683B6899683B685A683B68DB6800F0B4
:103DB00037FC7B681B689B68FB60FB6843F07703FC
:103DC000FB607B681B68FA689A604EE07B68186845
:103DD0003B6899683B685A683B68DB6800F020FCE8
:103DE0007B681B689A687B681B6842F480429A6013
:103DF0003BE07B6818683B6859683B68DB681A469B
:103E000000F0E4FA7B681B685021184600F0EEFBD6
:103E10002BE07B6818683B6859683B68DB681A468A
:103E200000F03EFB7B681B686021184600F0DEFB5B
:103E30001BE07B6818683B6859683B68DB681A467A
:103E400000F0C4FA7B681B684021184600F0CEFBE6
:103E50000BE07B681A683B681B681946104600F047
:103E6000C5FB02E000BF00E000BF7B68012283F8D1
:103E70003D207B68002283F83C2000231846103741
:103E8000BD4680BD80B485B000AF78603960002346
:103E9000FB603B680C2B31D801A252F823F000BF25
:103EA000D53E0008FD3E0008FD3E0008FD3E00082E
:103EB000DF3E0008FD3E0008FD3E0008FD3E000814
:103EC000E93E0008FD3E0008FD3E0008FD3E0008FA
:103ED000F33E00087B681B685B6BFB600FE07B6850
:103EE0001B689B6BFB600AE07B681B68DB6BFB60FD
:103EF00005E07B681B681B6CFB6000E000BFFB6893
:103F000018461437BD4680BC704700BF80B483B0EC
:103F100000AF786000BF0C37BD4680BC704780B4EE
:103F200083B000AF786000BF0C37BD4680BC7047DF
:103F300080B483B000AF786000BF0C37BD4680BC52
:103F40007047000080B485B000AF786039607B684E
:103F50001B68FB607B68294A93420BD07B68B3F1F6
:103F6000804F07D07B68264A934203D07B68254A5E
:103F7000934208D1FB6823F07003FB603B685B68E9
:103F8000FA681343FB607B681C4A93420BD07B6842
:103F9000B3F1804F07D07B68194A934203D07B6806
:103FA000184A934208D1FB6823F44073FB603B68D6
:103FB000DB68FA681343FB60FB6823F080023B6810
:103FC0005B691343FB607B68FA681A603B689A6818
:103FD0007B68DA623B681A687B689A627B68074A8A
:103FE000934203D13B681A697B681A637B6801229C
:103FF0005A6100BF1437BD4680BC7047002C014099
:10400000000400400008004080B487B000AF786032
:1040100039607B681B6A23F001027B681A627B6847
:104020001B6A7B617B685B683B617B689B69FB60AB
:10403000FB6823F07003FB60FB6823F00303FB6065
:104040003B681B68FA681343FB607B6923F002033B
:104050007B613B689B687A6913437B617B681C4A80
:1040600093420CD17B6923F008037B613B68DB68DA
:104070007A6913437B617B6923F004037B617B686E
:10408000134A934211D13B6923F480733B613B692E
:1040900023F400733B613B685B693A6913433B61FE
:1040A0003B689B693A6913433B617B683A695A6094
:1040B0007B68FA689A613B685A687B685A637B68D8
:1040C0007A691A6200BF1C37BD4680BC704700BFCA
:1040D000002C014080B487B000AF786039607B6805
:1040E0001B6A23F010027B681A627B681B6A7B6183
:1040F0007B685B683B617B689B69FB60FB6823F4C2
:10410000E043FB60FB6823F44073FB603B681B6883
:104110001B02FA681343FB607B6923F020037B6179
:104120003B689B681B017A6913437B617B681D4A6E
:1041300093420DD17B6923F080037B613B68DB6890
:104140001B017A6913437B617B6923F040037B6128
:104150007B68144A934213D13B6923F480633B612B
:104160003B6923F400633B613B685B699B003A69F0
:1041700013433B613B689B699B003A6913433B6176
:104180007B683A695A607B68FA689A613B685A684A
:104190007B689A637B687A691A6200BF1C37BD46E8
:1041A00080BC7047002C014080B487B000AF7860BD
:1041B00039607B681B6A23F480727B681A627B68B3
:1041C0001B6A7B617B685B683B617B68DB69FB60CA
:1041D000FB6823F07003FB60FB6823F00303FB60C4
:1041E0003B681B68FA681343FB607B6923F4007328
:1041F0007B613B689B681B027A6913437B617B6828
:104200001D4A93420DD17B6923F400637B613B68B7
:10421000DB681B027A6913437B617B6923F480634B
:104220007B617B68144A934213D13B6923F480532A
:104230003B613B6923F400533B613B685B691B01B5
:104240003A6913433B613B689B691B013A6913431D
:104250003B617B683A695A607B68FA68DA613B685F
:104260005A687B68DA637B687A691A6200BF1C3718
:10427000BD4680BC704700BF002C014080B487B0B1
:1042800000AF786039607B681B6A23F480527B68DA
:104290001A627B681B6A3B617B685B687B617B6839
:1042A000DB69FB60FB6823F4E043FB60FB6823F4FD
:1042B0004073FB603B681B681B02FA681343FB609A
:1042C0003B6923F400533B613B689B681B033A69DD
:1042D00013433B617B680F4A934209D17B6923F406
:1042E00080437B613B685B699B017A6913437B6117
:1042F0007B687A695A607B68FA68DA613B685A6859
:104300007B681A647B683A691A6200BF1C37BD4635
:1043100080BC7047002C014080B487B000AFF860CB
:10432000B9607A603B60FB681B6A23F00102FB689E
:104330001A62FB689B697B61FB681B6A3B61FB68D7
:104340001F4A93420BD0FB68B3F1804F07D0FB6844
:104350001C4A934203D0FB681B4A934201D10123BC
:1043600000E00023002B08D07B6923F003037B616E
:104370007A697B6813437B6103E07B6943F0010347
:104380007B617B6923F0F0037B613B681B01DBB23F
:104390007A6913437B613B6923F00A033B61BB6885
:1043A00003F00A033A6913433B61FB687A699A6137
:1043B000FB683A691A6200BF1C37BD4680BC704773
:1043C000002C0140000400400008004080B487B089
:1043D00000AFF860B9607A60FB681B6A7B61FB68BC
:1043E0001B6A23F00102FB681A62FB689B693B6150
:1043F0003B6923F0F0033B617B681B013A6913437F
:104400003B617B6923F00A037B617A69BB681343D4
:104410007B61FB683A699A61FB687A691A6200BF3E
:104420001C37BD4680BC704780B487B000AFF860D1
:10443000B9607A603B60FB681B6A23F01002FB687E
:104440001A62FB689B697B61FB681B6A3B617B6945
:1044500023F440737B617B681B027A6913437B61A1
:104460007B6923F470437B613B681B039BB27A69D1
:1044700013437B613B6923F0A0033B61BB681B01D5
:1044800003F0A0033A6913433B61FB687A699A61C0
:10449000FB683A691A6200BF1C37BD4680BC704792
:1044A00080B487B000AFF860B9607A60FB681B6ABF
:1044B00023F01002FB681A62FB689B697B61FB6852
:1044C0001B6A3B617B6923F470437B617B681B0340
:1044D0007A6913437B613B6923F0A0033B61BB68AE
:1044E0001B013A6913433B61FB687A699A61FB6877
:1044F0003A691A6200BF1C37BD4680BC704780B461
:1045000087B000AFF860B9607A603B60FB681B6AF7
:1045100023F48072FB681A62FB68DB697B61FB68CD
:104520001B6A3B617B6923F003037B617A697B68CB
:1045300013437B617B6923F0F0037B613B681B01C4
:10454000DBB27A6913437B613B6923F400733B61FF
:10455000BB681B0203F400733A6913433B61FB68B9
:104560007A69DA61FB683A691A6200BF1C37BD4696
:1045700080BC704780B487B000AFF860B9607A60E3
:104580003B60FB681B6A23F48052FB681A62FB687D
:10459000DB697B61FB681B6A3B617B6923F44073C9
:1045A0007B617B681B027A6913437B617B6923F41F
:1045B00070437B613B681B039BB27A6913437B6149
:1045C0003B6923F400533B61BB681B0303F40053B6
:1045D0003A6913433B61FB687A69DA61FB683A69BF
:1045E0001A6200BF1C37BD4680BC704780B485B0DE
:1045F00000AF786039607B689B68FB60FB6823F0E4
:104600007003FB603A68FB68134343F00703FB60E9
:104610007B68FA689A6000BF1437BD4680BC70475B
:1046200080B487B000AFF860B9607A603B60FB6827
:104630009B687B617B6923F47F437B613B681A0243
:104640007B681A43BB6813437A6913437B61FB6839
:104650007A699A6000BF1C37BD4680BC704780B441
:1046600087B000AFF860B9607A60BB6803F01F03E1
:10467000012202FA03F37B61FB681A6A7B69DB4360
:104680001A40FB681A62FB681A6ABB6803F01F03D2
:10469000796801FA03F31A43FB681A6200BF1C37FA
:1046A000BD4680BC7047000080B485B000AF786024
:1046B00039607B6893F83C30012B01D1022346E03E
:1046C0007B68012283F83C207B68022283F83D202E
:1046D0007B681B685B68FB607B681B689B68BB60D2
:1046E000FB6823F07003FB603B681B68FA681343A8
:1046F000FB607B681B68FA685A607B681B68164A17
:1047000093420ED07B681B68B3F1804F09D07B6861
:104710001B68124A934204D07B681B68104A93427C
:104720000CD1BB6823F08003BB603B685B68BA6850
:104730001343BB607B681B68BA689A607B68012280
:1047400083F83D207B68002283F83C200023184634
:104750001437BD4680BC7047002C01400004004067
:104760000008004080B483B000AF786000BF0C3711
:10477000BD4680BC704780B483B000AF786000BF96
:104780000C37BD4680BC704780B582B000AF786002
:104790007B68002B01D101233FE07B6893F83D301B
:1047A000DBB2002B06D17B68002283F83C207868BE
:1047B000FDF7DCFC7B68242283F83D207B681B68C6
:1047C000DA687B681B6822F40052DA60786800F0CF
:1047D00085FC7B681B681A697B681B6822F4904221
:1047E0001A617B681B685A697B681B6822F02A0281
:1047F0005A617B681B68DA687B681B6842F4005268
:10480000DA607B6800221A647B68202283F83D20EE
:104810007B68202283F83E20002318460837BD46D7
:1048200080BD80B58AB002AFF860B9603B601346C6
:10483000FB8000237B61FB6893F83D30DBB2202BCB
:104840007CD1BB68002B02D0FB88002B01D1012357
:1048500075E0FB6893F83C30012B01D102236EE038
:10486000FB68012283F83C20FB6800221A64FB6885
:10487000212283F83D20FDF74BFD7861FB68FA8823
:104880009A84FB68FA88DA84FB689B68B3F5805FDA
:1048900008D1FB681B69002B04D10023FB61BB68B6
:1048A000BB6103E0BB68FB610023BB61FB680022C6
:1048B00083F83C202AE03B6800937B69002280213A
:1048C000F86800F038FA0346002B01D0032336E0E5
:1048D000FB69002B0BD1BB691B881A46FB681B6860
:1048E000C2F308025A60BB690233BB6107E0FB698F
:1048F0001A78FB681B685A60FB690133FB61FB682F
:10490000DB8C9BB2013B9AB2FB68DA84FB68DB8CE0
:104910009BB2002BCFD13B6800937B6900224021E2
:10492000F86800F008FA0346002B01D0032306E0E4
:10493000FB68202283F83D20002300E00223184674
:104940002037BD4680BD80B584B000AFF860B96047
:104950001346FB80FB6893F83E30DBB2202B1DD161
:10496000BB68002B02D0FB88002B01D1012316E08D
:10497000FB6893F83C30012B01D102230FE0FB6868
:10498000012283F83C20FB6800221A63FB881A4648
:10499000B968F86800F019FA034600E002231846E7
:1049A0001037BD4680BD000080B58AB000AF78608A
:1049B0007B681B681B687B627B681B68DB683B62EB
:1049C0007B681B685B69FB610023BB6100237B6123
:1049D0007B6A03F00F03BB61BB69002B0DD17B6ABF
:1049E00003F02003002B08D03B6A03F02003002BC8
:1049F00003D0786800F0C9FA7BE1BB69002B00F0B6
:104A0000B180FB6903F00103002B05D13B6A03F47D
:104A10009073002B00F0A6807B6A03F00103002B4B
:104A20000AD03B6A03F48073002B05D07B681B6CB3
:104A300043F001027B681A647B6A03F00403002BD5
:104A40000AD0FB6903F00103002B05D07B681B6CC7
:104A500043F002027B681A647B6A03F00203002BB6
:104A60000AD0FB6903F00103002B05D07B681B6CA7
:104A700043F004027B681A647B6A03F00803002B8E
:104A80000FD03B6A03F02003002B04D1FB6903F035
:104A90000103002B05D07B681B6C43F008027B6888
:104AA0001A647B681B6C002B00F01E817B6A03F08C
:104AB0002003002B07D03B6A03F02003002B02D019
:104AC000786800F062FA7B681B685B6903F040035A
:104AD000002B14BF01230023DBB27B617B681B6CBE
:104AE00003F00803002B02D17B69002B31D07868DA
:104AF00000F0A4F97B681B685B6903F04003002B9E
:104B000023D07B681B685A697B681B6822F04002CF
:104B10005A617B689B6B002B13D07B689B6B764A3A
:104B20005A637B689B6B1846FDF768FD0346002BB4
:104B300016D07B689B6B5B6B7A68926B10469847CC
:104B40000EE0786800F0E3F80AE0786800F0DFF83B
:104B500006E0786800F0DBF87B6800221A64C3E0A6
:104B600000BFC1E07B681B6B012B40F0A1807B6A1A
:104B700003F01003002B00F09B803B6A03F010034E
:104B8000002B00F095800023FB607B681B681B688E
:104B9000FB607B681B685B68FB60FB687B681B686D
:104BA0005B6903F04003002B4ED07B689B6B1B6856
:104BB0005B683B823B8A002B00F098807B689B8D72
:104BC0003A8A9A4280F092807B683A8ADA857B68DA
:104BD0009B6B9B69202B2BD07B681B68DA687B68FA
:104BE0001B6822F48072DA607B681B685A697B68F4
:104BF0001B6822F001025A617B681B685A697B6856
:104C00001B6822F040025A617B68202283F83E2014
:104C10007B6800221A637B681B68DA687B681B6804
:104C200022F01002DA607B689B6B1846FDF7ABFC44
:104C30007B689A8D7B68DB8D9BB2D31A9BB2194639
:104C4000786800F06DF851E07B689A8D7B68DB8DA9
:104C50009BB2D31A7B827B68DB8D9BB2002B47D043
:104C60007B8A002B44D07B681B68DA687B681B68F2
:104C700022F49072DA607B681B685A697B681B6853
:104C800022F001025A617B68202283F83E207B6873
:104C900000221A637B681B68DA687B681B6822F055
:104CA0001002DA607B8A1946786800F039F81FE054
:104CB0007B6A03F08003002B08D03B6A03F080037B
:104CC000002B03D0786800F0F9F812E07B6A03F05B
:104CD0004003002B0DD03B6A03F04003002B08D0AB
:104CE000786800F03AF904E000BF02E000BF00E09D
:104CF00000BF2837BD4680BD954E000880B483B004
:104D000000AF786000BF0C37BD4680BC704780B4F0
:104D100083B000AF786000BF0C37BD4680BC7047E1
:104D200080B483B000AF78600B467B8000BF0C3747
:104D3000BD4680BC704780B584B000AFF860B960F4
:104D40003B601346FB712CE0BB69B3F1FF3F28D0F9
:104D5000BB69002B07D0FDF7DBFA02463B68D31A8C
:104D6000BA699A421DD2FB681B68DA68FB681B6847
:104D700022F4D072DA60FB681B685A69FB681B6812
:104D800022F001025A61FB68202283F83D20FB6873
:104D9000202283F83E20FB68002283F83C20032376
:104DA0000FE0FB681B681A68BB681340BA689A4238
:104DB0000CBF01230023DBB21A46FB799A42C3D011
:104DC000002318461037BD4680BD80B485B000AFC3
:104DD000F860B9601346FB80FB68BA689A62FB68AA
:104DE000FA889A85FB68FA88DA85FB6800221A64DB
:104DF000FB68222283F83E20FB68002283F83C20D7
:104E0000FB681B68DA68FB681B6842F48072DA6032
:104E1000FB681B685A69FB681B6842F001025A6113
:104E2000FB681B68DA68FB681B6842F02002DA60E6
:104E3000002318461437BD4680BC704780B483B049
:104E400000AF78607B681B68DA687B681B6822F4B7
:104E50009072DA607B681B685A697B681B6822F075
:104E600001025A617B681B6B012B07D17B681B68B1
:104E7000DA687B681B6822F01002DA607B68202207
:104E800083F83E207B6800221A6300BF0C37BD46C2
:104E900080BC704780B584B000AF78607B685B6A87
:104EA000FB60FB680022DA85FB680022DA84F86880
:104EB000FFF72DFF00BF1037BD4680BD80B485B021
:104EC00000AF78607B6893F83D30DBB2212B3ED198
:104ED0007B689B68B3F5805F14D17B681B69002BEE
:104EE00010D17B681B6AFB60FB681B881A467B68D5
:104EF0001B68C2F308025A607B681B6A9A1C7B68B5
:104F00001A6208E07B681B6A591C7A6811621A7879
:104F10007B681B685A607B68DB8C9BB2013B9BB251
:104F20007A681946D184002B0FD17B681B68DA6838
:104F30007B681B6822F08002DA607B681B68DA6895
:104F40007B681B6842F04002DA60002300E0022325
:104F500018461437BD4680BC704780B582B000AF9C
:104F600078607B681B68DA687B681B6822F0400207
:104F7000DA607B68202283F83D207868FFF7BEFE68
:104F8000002318460837BD4680BD80B586B000AF07
:104F900078607B6893F83E30DBB2222B40F099803A
:104FA0007B689B68B3F5805F17D17B681B69002B1A
:104FB00013D100237B617B689B6A3B617B681B6824
:104FC0005B689BB2C3F308039AB23B691A807B68A3
:104FD0009B6A9A1C7B689A6226E07B689B6A7B616D
:104FE00000233B617B689B68B3F5805F07D07B68DB
:104FF0009B68002B0AD17B681B69002B06D17B685C
:105000001B685B68DAB27B691A7008E07B681B6812
:105010005B68DBB203F07F03DAB27B691A707B68EE
:105020009B6A5A1C7B689A627B68DB8D9BB2013B52
:105030009BB27A681946D185002B48D17B681B68E2
:10504000DA687B681B6822F02002DA607B681B68E4
:10505000DA687B681B6822F48072DA607B681B6800
:105060005A697B681B6822F001025A617B68202222
:1050700083F83E207B681B6B012B23D17B680022C9
:105080001A637B681B68DA687B681B6822F0100271
:10509000DA607B681B681B6803F01003102B0AD1D1
:1050A0000023FB607B681B681B68FB607B681B68D8
:1050B0005B68FB60FB687B689B8D19467868FFF72F
:1050C0002FFE02E07868FCF797FD002302E0002342
:1050D00000E0022318461837BD4680BD80B584B075
:1050E00000AF78607B681B681B6923F440517B68C4
:1050F000DA687B681B680A431A617B689A687B6878
:105100001B691A437B685B691343BB607B681B6840
:10511000DB6823F4B05323F00C037A681268B96893
:105120000B43D3607B681B685B6923F440717B6829
:105130009A697B681B680A435A617B681B682C4A22
:10514000934203D1FEF754F8F86002E0FEF73CF812
:10515000F860FA6813469B0013449A001A447B686F
:105160005B689B00B2FBF3F3224AA2FB03235B09BB
:105170001901FA6813469B0013449A001A447B688D
:105180005B689B00B2FBF3F21A4BA3FB02035B09C3
:10519000642000FB03F3D31A1B013233154AA2FB30
:1051A00003235B0903F0F0031944FA6813469B00DC
:1051B00013449A001A447B685B689B00B2FBF3F2CD
:1051C0000C4BA3FB02035B09642000FB03F3D31A1F
:1051D0001B013233074AA2FB03235B0903F00F02D2
:1051E0007B681B680A449A6000BF1037BD4680BDCB
:1051F000003801401F85EB5180B500AF00224FF40D
:1052000000510248FDF7F4FB00BF80BD000C0140D7
:1052100080B500AF01224FF400510248FDF7E8FBD2
:1052200000BF80BD000C014080B500AF00224FF4EC
:1052300000510248FDF7DCFB00BF80BD000C0140BF
:1052400080B5ACB000AF0346FB7107F194030022B8
:105250001A605A609A60DA6007F1840300221A60CB
:105260005A609A60DA6007F17C0300221A605A6083
:1052700007F1600300221A605A609A60DA601A61CE
:105280005A619A610023C7F8A4300023C7F8AC30F4
:10529000002387F8AB30FB79B24A5B0113441B68EB
:1052A000B14A934208D0FB79AE4A5B011344043300
:1052B0001B68AD4A93420CD1AC4B9B69AB4A43F09F
:1052C00004039361A94B9B6903F004037B617B6931
:1052D00058E0FB79A34A5B0113441B68A44A93423C
:1052E00008D0FB799F4A5B01134404331B68A04A32
:1052F00093420CD19D4B9B699C4A43F008039361F8
:105300009A4B9B6903F008033B613B693AE0FB79E8
:10531000944A5B0113441B68964A934208D0FB7978
:10532000904A5B01134404331B68924A93420CD1A8
:105330008E4B9B698D4A43F0100393618B4B9B69A5
:1053400003F01003FB60FB681CE0FB79854A5B01FE
:1053500013441B68884A934208D0FB79814A5B0159
:10536000134404331B68844A93420BD17F4B9B69DF
:105370007E4A43F0200393617C4B9B6903F020033A
:10538000BB60BB68FB79774A5B01134408331B8819
:10539000C7F894300123C7F898300223C7F8A0302B
:1053A000FB79704A5B0113441B6807F194021146B4
:1053B0001846FDF799F9FB796A4A5B0113440A33F1
:1053C0001B88C7F894300123C7F898300223C7F828
:1053D000A030FB79634A5B01134404331B6807F177
:1053E000940211461846FDF77FF9FB795D4A5B018F
:1053F00013441868FB795B4A5B01134408331B882C
:1054000000221946FDF7F4FAFB79564A5B01134472
:1054100004331868FB79534A5B0113440A331B8831
:1054200000221946FDF7E4FA0123C7F8AC30002347
:1054300087F8AB3009E0D7F8AC305B00C7F8AC3088
:1054400097F8AB30013387F8AB30FB79454A5B0105
:1054500013441C331B7897F8AB209A42EBD3FB79AB
:10546000404A5B01134414331B881A46434B02FB2A
:1054700003F31946FB793B4A5B01134418331B685D
:10548000D7F8AC2002FB03F3B1FBF3F3C7F8A43069
:10549000D7F8A430013BC7F8A430D7F8AC30023BB2
:1054A000C7F8AC30FB792F4A5B0113440C331B68FF
:1054B000BB61D7F8A430FB6100233B62D7F8AC3066
:1054C0007B620023BB6280233B6307F1180318460D
:1054D000FDF7C0FE4FF48053C7F8843007F1840213
:1054E00007F1180311461846FEF708FC07F11803E8
:1054F0001846FDF751FF0023FB670023C7F88030F3
:1055000007F17C0207F1180311461846FFF7CCF8A3
:1055100060233B6600237B660023BB6600233B675A
:10552000FB79104A5B01134410331A6807F16001DC
:1055300007F118031846FEF723FB07F11803184676
:10554000FCF7BAFDFB79074A5B01134410331A6874
:1055500007F1180311461846FDF776FF00BFB03774
:10556000BD4680BD189100080008014000100240AF
:10557000000C0140001001400014014040420F00A7
:1055800080B582B000AF0346FB710B46BB7113467A
:10559000BB80BB79002B1FD1FB79404A5B011344D0
:1055A0001868FB793D4A5B01134408331B880122CC
:1055B0001946FDF71DFAFB79384A5B0113440433A1
:1055C0001868FB79354A5B0113440A331B880022B3
:1055D0001946FDF70DFA21E0BB79012B1ED1FB79AD
:1055E0002E4A5B0113441868FB792C4A5B01134473
:1055F00008331B8800221946FDF7FAF9FB79274A80
:105600005B01134404331868FB79244A5B0113449B
:105610000A331B8801221946FDF7EAF9FB791F4A74
:105620005B01134410331B68002B08D1FB791B4A24
:105630005B0113440C331B68BA885A6329E0FB7979
:10564000164A5B01134410331B68042B08D1FB7905
:10565000124A5B0113440C331B68BA889A6318E042
:10566000FB790E4A5B01134410331B68082B08D1E9
:10567000FB790A4A5B0113440C331B68BA88DA636E
:1056800007E0FB79054A5B0113440C331B68BA88B9
:105690001A6400BF0837BD4680BD00BF18910008DE
:1056A00080B483B000AF03460A46FB711346BB804B
:1056B000FB791F4A5B01134410331B68002B08D190
:1056C000FB791B4A5B0113440C331B68BA885A638D
:1056D00029E0FB79164A5B01134410331B68042B45
:1056E00008D1FB79124A5B0113440C331B68BA885A
:1056F0009A6318E0FB790E4A5B01134410331B6870
:10570000082B08D1FB790A4A5B0113440C331B6850
:10571000BA88DA6307E0FB79054A5B0113440C336E
:105720001B68BA881A6400BF0C37BD4680BC70473E
:105730001891000880B582B000AF0346FB71FB7979
:105740002E4A5B0113441868FB792C4A5B01134411
:1057500008331B8800221946FDF74AF9FB79274ACE
:105760005B01134404331868FB79244A5B0113443A
:105770000A331B8800221946FDF73AF9FB791F4AC4
:105780005B01134410331B68002B08D1FB791B4AC3
:105790005B0113440C331B6800225A6329E0FB7938
:1057A000164A5B01134410331B68042B08D1FB79A4
:1057B000124A5B0113440C331B6800229A6318E001
:1057C000FB790E4A5B01134410331B68082B08D188
:1057D000FB790A4A5B0113440C331B680022DA632D
:1057E00007E0FB79054A5B0113440C331B68002278
:1057F0001A6400BF0837BD4680BD00BF189100087D
:1058000080B594B000AF03463960FB7107F14003E7
:1058100000221A605A609A60DA6007F130030022B1
:105820001A605A609A60DA6007F1280300221A6051
:105830005A6007F1180300221A605A609A60DA6011
:10584000FA79874913469B0013449B000B441B685D
:10585000844A93420CD1844B9B69834A43F00403EE
:105860009361814B9B6903F004037B617B6946E094
:10587000FA797B4913469B0013449B000B441B6839
:105880007A4A93420CD1784B9B69774A43F00803DC
:105890009361754B9B6903F008033B613B692EE004
:1058A000FA796F4913469B0013449B000B441B6815
:1058B0006F4A93420CD16C4B9B696B4A43F01003C7
:1058C0009361694B9B6903F01003FB60FB6816E072
:1058D000FA79634913469B0013449B000B441B68F1
:1058E000644A93420BD1604B9B695F4A43F02003AB
:1058F00093615D4B9B6903F02003BB60BB68FA7941
:10590000574913469B0013449B000B4404331B88E8
:105910003B6401237B640023BB640223FB64FA79AC
:105920004F4913469B0013449B000B441B6807F12F
:10593000400211461846FCF7D7FEFA79484913464B
:105940009B0013449B000B4408331B68FA79996A47
:1059500049481346DB0013449B0003440433196099
:10596000FA793F4913469B0013449B000B440833CC
:105970001B68FA79D96A40481346DB0013449B0040
:10598000034408331960FA793B491346DB0013449A
:105990009B000B44023300221A80FA7936491346E1
:1059A000DB0013449B000B441C333A681A60FA79FD
:1059B00031491346DB0013449B000B4408331B683A
:1059C000002B0AD1FA792C491346DB0013449B00C3
:1059D0000B4408334FF6FF721A60FA7920491346D8
:1059E0009B0013449B000B440C331B68002B0AD113
:1059F000FA7921491346DB0013449B000B44203302
:105A000001221A704FE0FA79154913469B0013449E
:105A10009B000B440C331B68042B0AD1FA791649FE
:105A20001346DB0013449B000B44203302221A7000
:105A300039E0FA790A4913469B0013449B000B4452
:105A40000C331B68082B19D1FA790B491346DB007C
:105A500013449B000B44203304221A7023E000BF40
:105A6000589100080008014000100240000C01405D
:105A70000010014000140140E8020020FA79414979
:105A800013469B0013449B000B440C331B680C2BE8
:105A900009D1FA793C491346DB0013449B000B44BF
:105AA000203308221A70FA79364913469B001344B2
:105AB0009B000B4408331A683B681A60FA79324934
:105AC0001346DB0013449B000B4404331A683B6805
:105AD0005A603B6800229A60FA792B491346DB0032
